{
  "address": "0x0E0E340810a44d7298bf3844CdBb692fcf9A58c7",
  "abi": [
    {
      "inputs": [
        {
          "internalType": "contract IFermion",
          "name": "fermion",
          "type": "address"
        },
        {
          "internalType": "contract IPlanet",
          "name": "planet",
          "type": "address"
        },
        {
          "internalType": "uint256",
          "name": "fermionPerBlock",
          "type": "uint256"
        },
        {
          "internalType": "uint256",
          "name": "startBlock",
          "type": "uint256"
        }
      ],
      "stateMutability": "nonpayable",
      "type": "constructor"
    },
    {
      "anonymous": false,
      "inputs": [
        {
          "indexed": true,
          "internalType": "address",
          "name": "user",
          "type": "address"
        },
        {
          "indexed": true,
          "internalType": "uint256",
          "name": "pid",
          "type": "uint256"
        },
        {
          "indexed": false,
          "internalType": "uint256",
          "name": "amount",
          "type": "uint256"
        },
        {
          "indexed": true,
          "internalType": "address",
          "name": "to",
          "type": "address"
        }
      ],
      "name": "Deposit",
      "type": "event"
    },
    {
      "anonymous": false,
      "inputs": [
        {
          "indexed": true,
          "internalType": "address",
          "name": "user",
          "type": "address"
        },
        {
          "indexed": true,
          "internalType": "uint256",
          "name": "pid",
          "type": "uint256"
        },
        {
          "indexed": false,
          "internalType": "uint256",
          "name": "amount",
          "type": "uint256"
        },
        {
          "indexed": true,
          "internalType": "address",
          "name": "to",
          "type": "address"
        }
      ],
      "name": "EmergencyWithdraw",
      "type": "event"
    },
    {
      "anonymous": false,
      "inputs": [
        {
          "indexed": true,
          "internalType": "address",
          "name": "user",
          "type": "address"
        },
        {
          "indexed": true,
          "internalType": "uint256",
          "name": "pid",
          "type": "uint256"
        },
        {
          "indexed": false,
          "internalType": "uint256",
          "name": "amount",
          "type": "uint256"
        },
        {
          "indexed": true,
          "internalType": "address",
          "name": "to",
          "type": "address"
        }
      ],
      "name": "Harvest",
      "type": "event"
    },
    {
      "anonymous": false,
      "inputs": [
        {
          "indexed": true,
          "internalType": "uint256",
          "name": "pid",
          "type": "uint256"
        },
        {
          "indexed": false,
          "internalType": "uint256",
          "name": "allocPoint",
          "type": "uint256"
        },
        {
          "indexed": true,
          "internalType": "contract IERC20",
          "name": "lpToken",
          "type": "address"
        }
      ],
      "name": "LogPoolAddition",
      "type": "event"
    },
    {
      "anonymous": false,
      "inputs": [
        {
          "indexed": true,
          "internalType": "uint256",
          "name": "pid",
          "type": "uint256"
        },
        {
          "indexed": false,
          "internalType": "uint256",
          "name": "allocPoint",
          "type": "uint256"
        }
      ],
      "name": "LogSetPool",
      "type": "event"
    },
    {
      "anonymous": false,
      "inputs": [
        {
          "indexed": true,
          "internalType": "uint256",
          "name": "pid",
          "type": "uint256"
        },
        {
          "indexed": false,
          "internalType": "uint256",
          "name": "lastRewardBlock",
          "type": "uint256"
        },
        {
          "indexed": false,
          "internalType": "uint256",
          "name": "lpSupply",
          "type": "uint256"
        },
        {
          "indexed": false,
          "internalType": "uint256",
          "name": "accFermionPerShare",
          "type": "uint256"
        }
      ],
      "name": "LogUpdatePool",
      "type": "event"
    },
    {
      "anonymous": false,
      "inputs": [
        {
          "indexed": true,
          "internalType": "uint256",
          "name": "pid",
          "type": "uint256"
        },
        {
          "indexed": false,
          "internalType": "uint256",
          "name": "balance",
          "type": "uint256"
        },
        {
          "indexed": true,
          "internalType": "contract IERC20",
          "name": "fromToken",
          "type": "address"
        },
        {
          "indexed": true,
          "internalType": "contract IERC20",
          "name": "toToken",
          "type": "address"
        }
      ],
      "name": "Migrate",
      "type": "event"
    },
    {
      "anonymous": false,
      "inputs": [
        {
          "indexed": true,
          "internalType": "address",
          "name": "previousOwner",
          "type": "address"
        },
        {
          "indexed": true,
          "internalType": "address",
          "name": "newOwner",
          "type": "address"
        }
      ],
      "name": "OwnershipTransferred",
      "type": "event"
    },
    {
      "anonymous": false,
      "inputs": [
        {
          "indexed": true,
          "internalType": "address",
          "name": "user",
          "type": "address"
        },
        {
          "indexed": true,
          "internalType": "uint256",
          "name": "pid",
          "type": "uint256"
        },
        {
          "indexed": false,
          "internalType": "uint256",
          "name": "amount",
          "type": "uint256"
        },
        {
          "indexed": true,
          "internalType": "address",
          "name": "to",
          "type": "address"
        }
      ],
      "name": "Withdraw",
      "type": "event"
    },
    {
      "inputs": [
        {
          "internalType": "uint256",
          "name": "allocPoint",
          "type": "uint256"
        },
        {
          "internalType": "contract IERC20",
          "name": "lpToken",
          "type": "address"
        },
        {
          "internalType": "uint256",
          "name": "lockPeriod",
          "type": "uint256"
        }
      ],
      "name": "add",
      "outputs": [],
      "stateMutability": "nonpayable",
      "type": "function"
    },
    {
      "inputs": [
        {
          "internalType": "uint256",
          "name": "pid",
          "type": "uint256"
        },
        {
          "internalType": "uint256",
          "name": "amount",
          "type": "uint256"
        },
        {
          "internalType": "address",
          "name": "to",
          "type": "address"
        }
      ],
      "name": "deposit",
      "outputs": [],
      "stateMutability": "nonpayable",
      "type": "function"
    },
    {
      "inputs": [
        {
          "internalType": "uint256",
          "name": "pid",
          "type": "uint256"
        }
      ],
      "name": "disablePool",
      "outputs": [],
      "stateMutability": "nonpayable",
      "type": "function"
    },
    {
      "inputs": [
        {
          "internalType": "uint256",
          "name": "pid",
          "type": "uint256"
        },
        {
          "internalType": "address",
          "name": "to",
          "type": "address"
        }
      ],
      "name": "emergencyWithdraw",
      "outputs": [],
      "stateMutability": "nonpayable",
      "type": "function"
    },
    {
      "inputs": [],
      "name": "getFermionContract",
      "outputs": [
        {
          "internalType": "contract IFermion",
          "name": "",
          "type": "address"
        }
      ],
      "stateMutability": "view",
      "type": "function"
    },
    {
      "inputs": [],
      "name": "getFermionPerBlock",
      "outputs": [
        {
          "internalType": "uint256",
          "name": "",
          "type": "uint256"
        }
      ],
      "stateMutability": "view",
      "type": "function"
    },
    {
      "inputs": [],
      "name": "getStartBlock",
      "outputs": [
        {
          "internalType": "uint256",
          "name": "",
          "type": "uint256"
        }
      ],
      "stateMutability": "view",
      "type": "function"
    },
    {
      "inputs": [],
      "name": "getStore",
      "outputs": [
        {
          "internalType": "contract IMagneticFieldGeneratorStore",
          "name": "",
          "type": "address"
        }
      ],
      "stateMutability": "view",
      "type": "function"
    },
    {
      "inputs": [
        {
          "internalType": "contract IMagneticFieldGenerator",
          "name": "suc",
          "type": "address"
        }
      ],
      "name": "handOverToSuccessor",
      "outputs": [],
      "stateMutability": "nonpayable",
      "type": "function"
    },
    {
      "inputs": [
        {
          "internalType": "uint256",
          "name": "pid",
          "type": "uint256"
        },
        {
          "internalType": "address",
          "name": "to",
          "type": "address"
        }
      ],
      "name": "harvest",
      "outputs": [],
      "stateMutability": "nonpayable",
      "type": "function"
    },
    {
      "inputs": [],
      "name": "massUpdatePools",
      "outputs": [],
      "stateMutability": "nonpayable",
      "type": "function"
    },
    {
      "inputs": [
        {
          "internalType": "uint256",
          "name": "pid",
          "type": "uint256"
        }
      ],
      "name": "migrate",
      "outputs": [],
      "stateMutability": "nonpayable",
      "type": "function"
    },
    {
      "inputs": [],
      "name": "migrator",
      "outputs": [
        {
          "internalType": "contract IMigratorDevice",
          "name": "",
          "type": "address"
        }
      ],
      "stateMutability": "view",
      "type": "function"
    },
    {
      "inputs": [],
      "name": "owner",
      "outputs": [
        {
          "internalType": "address",
          "name": "",
          "type": "address"
        }
      ],
      "stateMutability": "view",
      "type": "function"
    },
    {
      "inputs": [
        {
          "internalType": "uint256",
          "name": "pid",
          "type": "uint256"
        },
        {
          "internalType": "address",
          "name": "user",
          "type": "address"
        }
      ],
      "name": "pendingFermion",
      "outputs": [
        {
          "internalType": "uint256",
          "name": "",
          "type": "uint256"
        }
      ],
      "stateMutability": "view",
      "type": "function"
    },
    {
      "inputs": [
        {
          "internalType": "uint256",
          "name": "pid",
          "type": "uint256"
        }
      ],
      "name": "poolInfo",
      "outputs": [
        {
          "components": [
            {
              "internalType": "contract IERC20",
              "name": "lpToken",
              "type": "address"
            },
            {
              "internalType": "uint256",
              "name": "allocPoint",
              "type": "uint256"
            },
            {
              "internalType": "uint256",
              "name": "lastRewardBlock",
              "type": "uint256"
            },
            {
              "internalType": "uint256",
              "name": "accFermionPerShare",
              "type": "uint256"
            },
            {
              "internalType": "uint256",
              "name": "initialLock",
              "type": "uint256"
            }
          ],
          "internalType": "struct PoolInfo",
          "name": "",
          "type": "tuple"
        }
      ],
      "stateMutability": "view",
      "type": "function"
    },
    {
      "inputs": [],
      "name": "poolLength",
      "outputs": [
        {
          "internalType": "uint256",
          "name": "",
          "type": "uint256"
        }
      ],
      "stateMutability": "view",
      "type": "function"
    },
    {
      "inputs": [],
      "name": "renounceOwnership",
      "outputs": [],
      "stateMutability": "nonpayable",
      "type": "function"
    },
    {
      "inputs": [
        {
          "internalType": "uint256",
          "name": "pid",
          "type": "uint256"
        },
        {
          "internalType": "uint256",
          "name": "allocPoint",
          "type": "uint256"
        }
      ],
      "name": "set",
      "outputs": [],
      "stateMutability": "nonpayable",
      "type": "function"
    },
    {
      "inputs": [
        {
          "internalType": "uint256",
          "name": "fermionPerBlock",
          "type": "uint256"
        }
      ],
      "name": "setFermionPerBlock",
      "outputs": [],
      "stateMutability": "nonpayable",
      "type": "function"
    },
    {
      "inputs": [
        {
          "internalType": "contract IMigratorDevice",
          "name": "migratorContract",
          "type": "address"
        }
      ],
      "name": "setMigrator",
      "outputs": [],
      "stateMutability": "nonpayable",
      "type": "function"
    },
    {
      "inputs": [
        {
          "internalType": "contract IMagneticFieldGeneratorStore",
          "name": "storeContract",
          "type": "address"
        }
      ],
      "name": "setStore",
      "outputs": [],
      "stateMutability": "nonpayable",
      "type": "function"
    },
    {
      "inputs": [],
      "name": "successor",
      "outputs": [
        {
          "internalType": "contract IMagneticFieldGenerator",
          "name": "",
          "type": "address"
        }
      ],
      "stateMutability": "view",
      "type": "function"
    },
    {
      "inputs": [],
      "name": "totalAllocPoint",
      "outputs": [
        {
          "internalType": "uint256",
          "name": "",
          "type": "uint256"
        }
      ],
      "stateMutability": "view",
      "type": "function"
    },
    {
      "inputs": [
        {
          "internalType": "address",
          "name": "newOwner",
          "type": "address"
        }
      ],
      "name": "transferOwnership",
      "outputs": [],
      "stateMutability": "nonpayable",
      "type": "function"
    },
    {
      "inputs": [
        {
          "internalType": "uint256",
          "name": "pid",
          "type": "uint256"
        }
      ],
      "name": "updatePool",
      "outputs": [
        {
          "components": [
            {
              "internalType": "contract IERC20",
              "name": "lpToken",
              "type": "address"
            },
            {
              "internalType": "uint256",
              "name": "allocPoint",
              "type": "uint256"
            },
            {
              "internalType": "uint256",
              "name": "lastRewardBlock",
              "type": "uint256"
            },
            {
              "internalType": "uint256",
              "name": "accFermionPerShare",
              "type": "uint256"
            },
            {
              "internalType": "uint256",
              "name": "initialLock",
              "type": "uint256"
            }
          ],
          "internalType": "struct PoolInfo",
          "name": "",
          "type": "tuple"
        }
      ],
      "stateMutability": "nonpayable",
      "type": "function"
    },
    {
      "inputs": [
        {
          "internalType": "uint256",
          "name": "pid",
          "type": "uint256"
        },
        {
          "internalType": "address",
          "name": "user",
          "type": "address"
        }
      ],
      "name": "userInfo",
      "outputs": [
        {
          "components": [
            {
              "internalType": "uint256",
              "name": "amount",
              "type": "uint256"
            },
            {
              "internalType": "int256",
              "name": "rewardDebt",
              "type": "int256"
            }
          ],
          "internalType": "struct UserInfo",
          "name": "",
          "type": "tuple"
        }
      ],
      "stateMutability": "view",
      "type": "function"
    },
    {
      "inputs": [
        {
          "internalType": "uint256",
          "name": "pid",
          "type": "uint256"
        },
        {
          "internalType": "uint256",
          "name": "amount",
          "type": "uint256"
        },
        {
          "internalType": "address",
          "name": "to",
          "type": "address"
        }
      ],
      "name": "withdraw",
      "outputs": [],
      "stateMutability": "nonpayable",
      "type": "function"
    },
    {
      "inputs": [
        {
          "internalType": "uint256",
          "name": "pid",
          "type": "uint256"
        },
        {
          "internalType": "uint256",
          "name": "amount",
          "type": "uint256"
        },
        {
          "internalType": "address",
          "name": "to",
          "type": "address"
        }
      ],
      "name": "withdrawAndHarvest",
      "outputs": [],
      "stateMutability": "nonpayable",
      "type": "function"
    }
  ],
  "transactionHash": "0xd92cf42ccc004ef62f71a7815cd798c734b1564df85f18fb3822073e145c01e9",
  "args": [
    "0x96f6Ba4C424EaB2cDf66D640Ddf774f025d8A9C4",
    "0x1B760818667Cf5B8C90E2394E7E4a577f15a89C0",
    "4000000000000000000",
    "0"
  ],
  "numDeployments": 1,
  "solcInputHash": "d05195661d96f027df10f9ab57fb7c5c",
  "bytecode": "0x60e06040523480156200001157600080fd5b50604051620044e4380380620044e483398101604081905262000034916200018e565b6200003f3362000125565b6001600160a01b0380851660a05260018390556080829052831660c081905260408051637e062a3560e11b8152905163fc0c546a916004808201926020929091908290030181865afa1580156200009a573d6000803e3d6000fd5b505050506040513d601f19601f82011682018060405250810190620000c09190620001db565b6001600160a01b031660a0516001600160a01b0316146200011b5760405162461bcd60e51b8152602060048201526011602482015270135191ce8815dc9bdb99c8141b185b995d607a1b604482015260640160405180910390fd5b5050505062000202565b600080546001600160a01b038381166001600160a01b0319831681178455604051919092169283917f8be0079c531659141344cd1fd0a4f28419497f9722a3daafe3b4186f6b6457e09190a35050565b6001600160a01b03811681146200018b57600080fd5b50565b60008060008060808587031215620001a557600080fd5b8451620001b28162000175565b6020860151909450620001c58162000175565b6040860151606090960151949790965092505050565b600060208284031215620001ee57600080fd5b8151620001fb8162000175565b9392505050565b60805160a05160c051614218620002cc60003960008181610818015281816108a201528181610f4f0152818161188e015281816118eb0152818161259d0152818161265401528181612b0e0152818161310f015261319901526000818161041c0152818161091801528181610c4d01528181610cd50152818161131a0152818161196101528181612208015281816125f701528181612aa801528181612b5f01528181613012015261320f01526000818161038c01528181612a310152612a5801526142186000f3fe608060405234801561001057600080fd5b50600436106101cf5760003560e01c80636ff968c311610104578063a64e1218116100a2578063d1abb90711610071578063d1abb90714610407578063d5b7076c1461041a578063f09ba87114610440578063f2fde38b1461045357600080fd5b8063a64e1218146103b0578063b9955e39146103c3578063be867ebe146103d6578063c2722ecc146103e957600080fd5b80638da5cb5b116100de5780638da5cb5b146103395780638dbdbe6d1461035757806393f1a40b1461036a578063a5f18c011461038a57600080fd5b80636ff968c3146102d4578063715018a6146103135780637cd07e471461031b57600080fd5b806318fccc76116101715780632f940c701161014b5780632f940c7014610293578063454b0608146102a657806351eb05a6146102b9578063630b5ba1146102cc57600080fd5b806318fccc761461025a5780631ab06ee51461026d57806323cf31181461028057600080fd5b80631453d91f116101ad5780631453d91f146102175780631526fe271461022a57806317caf6f11461024a578063181dc4391461025257600080fd5b8063081e3eda146101d4578063087cbd40146101ef5780630ad58d2f14610204575b600080fd5b6101dc610466565b6040519081526020015b60405180910390f35b6102026101fd366004613ce3565b6104ff565b005b610202610212366004613d00565b6105cc565b610202610225366004613ce3565b6109d7565b61023d610238366004613d39565b611069565b6040516101e69190613d52565b6002546101dc565b6001546101dc565b610202610268366004613da1565b61114a565b61020261027b366004613dd1565b6113fa565b61020261028e366004613ce3565b611607565b6102026102a1366004613da1565b6116cf565b6102026102b4366004613d39565b611a99565b61023d6102c7366004613d39565b611f7b565b61020261235d565b60045473ffffffffffffffffffffffffffffffffffffffff165b60405173ffffffffffffffffffffffffffffffffffffffff90911681526020016101e6565b610202612414565b60035473ffffffffffffffffffffffffffffffffffffffff166102ee565b60005473ffffffffffffffffffffffffffffffffffffffff166102ee565b610202610365366004613d00565b61241e565b61037d610378366004613da1565b612736565b6040516101e69190613df3565b7f00000000000000000000000000000000000000000000000000000000000000006101dc565b6102026103be366004613d39565b6127eb565b6102026103d1366004613e0a565b6129a4565b6102026103e4366004613d39565b612d86565b60055473ffffffffffffffffffffffffffffffffffffffff166102ee565b610202610415366004613d00565b612e14565b7f00000000000000000000000000000000000000000000000000000000000000006102ee565b6101dc61044e366004613da1565b613337565b610202610461366004613ce3565b613576565b600554604080517fb3944d52000000000000000000000000000000000000000000000000000000008152905160009273ffffffffffffffffffffffffffffffffffffffff169163b3944d529160048083019260209291908290030181865afa1580156104d6573d6000803e3d6000fd5b505050506040513d601f19601f820116820180604052508101906104fa9190613e42565b905090565b60005473ffffffffffffffffffffffffffffffffffffffff163314610585576040517f08c379a000000000000000000000000000000000000000000000000000000000815260206004820181905260248201527f4f776e61626c653a2063616c6c6572206973206e6f7420746865206f776e657260448201526064015b60405180910390fd5b600580547fffffffffffffffffffffffff00000000000000000000000000000000000000001673ffffffffffffffffffffffffffffffffffffffff92909216919091179055565b60006105d784611f7b565b905043816080015110610646576040517f08c379a000000000000000000000000000000000000000000000000000000000815260206004820152601060248201527f4d46473a20706f6f6c206c6f636b656400000000000000000000000000000000604482015260640161057c565b600554604080517f1069f3b500000000000000000000000000000000000000000000000000000000815260048101879052336024820152815160009373ffffffffffffffffffffffffffffffffffffffff1692631069f3b592604480820193918290030181865afa1580156106bf573d6000803e3d6000fd5b505050506040513d601f19601f820116820180604052508101906106e39190613e5b565b805190915084811015610752576040517f08c379a000000000000000000000000000000000000000000000000000000000815260206004820181905260248201527f4d46473a20616d6f756e74206578656564732073746f72656420616d6f756e74604482015260640161057c565b606083015161076f6107648288613f00565b64e8d4a51000613582565b836020015161077e9190613f17565b60208401528582038084526005546040517f3224e6c900000000000000000000000000000000000000000000000000000000815291935073ffffffffffffffffffffffffffffffffffffffff1690633224e6c9906107e4908a9033908890600401613f3e565b600060405180830381600087803b1580156107fe57600080fd5b505af1158015610812573d6000803e3d6000fd5b505050507f000000000000000000000000000000000000000000000000000000000000000073ffffffffffffffffffffffffffffffffffffffff16846000015173ffffffffffffffffffffffffffffffffffffffff1603610943576040517ff29953b7000000000000000000000000000000000000000000000000000000008152600481018790523060248201527f000000000000000000000000000000000000000000000000000000000000000073ffffffffffffffffffffffffffffffffffffffff169063f29953b790604401600060405180830381600087803b1580156108fb57600080fd5b505af115801561090f573d6000803e3d6000fd5b5050505061093e7f0000000000000000000000000000000000000000000000000000000000000000868861359b565b610966565b83516109669073ffffffffffffffffffffffffffffffffffffffff16868861359b565b73ffffffffffffffffffffffffffffffffffffffff8516873373ffffffffffffffffffffffffffffffffffffffff167f8166bf25f8a2b7ed3c85049207da4358d16edbed977d23fa2ee6f0dde3ec2132896040516109c691815260200190565b60405180910390a450505050505050565b60005473ffffffffffffffffffffffffffffffffffffffff163314610a58576040517f08c379a000000000000000000000000000000000000000000000000000000000815260206004820181905260248201527f4f776e61626c653a2063616c6c6572206973206e6f7420746865206f776e6572604482015260640161057c565b60045473ffffffffffffffffffffffffffffffffffffffff1615610ad8576040517f08c379a000000000000000000000000000000000000000000000000000000000815260206004820152601a60248201527f4d46473a20537563636573736f7220616c726561647920736574000000000000604482015260640161057c565b3073ffffffffffffffffffffffffffffffffffffffff168173ffffffffffffffffffffffffffffffffffffffff16638da5cb5b6040518163ffffffff1660e01b8152600401602060405180830381865afa158015610b3a573d6000803e3d6000fd5b505050506040513d601f19601f82011682018060405250810190610b5e9190613f78565b73ffffffffffffffffffffffffffffffffffffffff1614610bdb576040517f08c379a000000000000000000000000000000000000000000000000000000000815260206004820181905260248201527f4d46473a20537563636573736f72206e6f74206f776e65642062792074686973604482015260640161057c565b600480547fffffffffffffffffffffffff00000000000000000000000000000000000000001673ffffffffffffffffffffffffffffffffffffffff83811691821783556040517ff2fde38b000000000000000000000000000000000000000000000000000000008152928301919091527f0000000000000000000000000000000000000000000000000000000000000000169063f2fde38b90602401600060405180830381600087803b158015610c9157600080fd5b505af1158015610ca5573d6000803e3d6000fd5b50506040517f70a082310000000000000000000000000000000000000000000000000000000081523060048201527f000000000000000000000000000000000000000000000000000000000000000073ffffffffffffffffffffffffffffffffffffffff16925063a9059cbb9150839083906370a0823190602401602060405180830381865afa158015610d3d573d6000803e3d6000fd5b505050506040513d601f19601f82011682018060405250810190610d619190613e42565b6040517fffffffff0000000000000000000000000000000000000000000000000000000060e085901b16815273ffffffffffffffffffffffffffffffffffffffff909216600483015260248201526044016020604051808303816000875af1158015610dd1573d6000803e3d6000fd5b505050506040513d601f19601f82011682018060405250810190610df59190613f95565b50610dfe61235d565b6005546040517ff2fde38b00000000000000000000000000000000000000000000000000000000815273ffffffffffffffffffffffffffffffffffffffff83811660048301529091169063f2fde38b90602401600060405180830381600087803b158015610e6b57600080fd5b505af1158015610e7f573d6000803e3d6000fd5b5050600480546005546040517f087cbd4000000000000000000000000000000000000000000000000000000000815273ffffffffffffffffffffffffffffffffffffffff9182169381019390935216925063087cbd409150602401600060405180830381600087803b158015610ef457600080fd5b505af1158015610f08573d6000803e3d6000fd5b50506040517ff2fde38b00000000000000000000000000000000000000000000000000000000815273ffffffffffffffffffffffffffffffffffffffff84811660048301527f000000000000000000000000000000000000000000000000000000000000000016925063f2fde38b9150602401600060405180830381600087803b158015610f9557600080fd5b505af1158015610fa9573d6000803e3d6000fd5b505050508073ffffffffffffffffffffffffffffffffffffffff1663f2fde38b610fe860005473ffffffffffffffffffffffffffffffffffffffff1690565b6040517fffffffff0000000000000000000000000000000000000000000000000000000060e084901b16815273ffffffffffffffffffffffffffffffffffffffff9091166004820152602401600060405180830381600087803b15801561104e57600080fd5b505af1158015611062573d6000803e3d6000fd5b5050505050565b6110b16040518060a00160405280600073ffffffffffffffffffffffffffffffffffffffff168152602001600081526020016000815260200160008152602001600081525090565b6005546040517f2f380b350000000000000000000000000000000000000000000000000000000081526004810184905273ffffffffffffffffffffffffffffffffffffffff90911690632f380b359060240160a060405180830381865afa158015611120573d6000803e3d6000fd5b505050506040513d601f19601f820116820180604052508101906111449190613fb7565b92915050565b600061115583611f7b565b60055490915060009073ffffffffffffffffffffffffffffffffffffffff16631069f3b585336040517fffffffff0000000000000000000000000000000000000000000000000000000060e085901b168152600481019290925273ffffffffffffffffffffffffffffffffffffffff1660248201526044016040805180830381865afa1580156111e9573d6000803e3d6000fd5b505050506040513d601f19601f8201168201806040525081019061120d9190613e5b565b90506000611228836060015183600001516107649190613f00565b9050600082602001518261123c9190613f17565b602084018390526005546040517f3224e6c900000000000000000000000000000000000000000000000000000000815291925073ffffffffffffffffffffffffffffffffffffffff1690633224e6c99061129e90899033908890600401613f3e565b600060405180830381600087803b1580156112b857600080fd5b505af11580156112cc573d6000803e3d6000fd5b50506040517fa9059cbb00000000000000000000000000000000000000000000000000000000815273ffffffffffffffffffffffffffffffffffffffff8881166004830152602482018590527f000000000000000000000000000000000000000000000000000000000000000016925063a9059cbb91506044016020604051808303816000875af1158015611365573d6000803e3d6000fd5b505050506040513d601f19601f820116820180604052508101906113899190613f95565b5073ffffffffffffffffffffffffffffffffffffffff8516863373ffffffffffffffffffffffffffffffffffffffff167f21cbb56dd6543339d498c80d96e1552af32e753decefef74da4c5efef932dbd4846040516113ea91815260200190565b60405180910390a4505050505050565b60005473ffffffffffffffffffffffffffffffffffffffff16331461147b576040517f08c379a000000000000000000000000000000000000000000000000000000000815260206004820181905260248201527f4f776e61626c653a2063616c6c6572206973206e6f7420746865206f776e6572604482015260640161057c565b61148361235d565b6005546040517f2f380b350000000000000000000000000000000000000000000000000000000081526004810184905260009173ffffffffffffffffffffffffffffffffffffffff1690632f380b359060240160a060405180830381865afa1580156114f3573d6000803e3d6000fd5b505050506040513d601f19601f820116820180604052508101906115179190613fb7565b90508161152a6002548360200151900390565b6115349190614057565b600255602081018290526005546040517f91f317e400000000000000000000000000000000000000000000000000000000815273ffffffffffffffffffffffffffffffffffffffff909116906391f317e490611596908690859060040161406a565b600060405180830381600087803b1580156115b057600080fd5b505af11580156115c4573d6000803e3d6000fd5b50505050827f942cc7e17a17c164bd977f32ab8c54265d5b9d481e4e352bf874f1e568874e7c836040516115fa91815260200190565b60405180910390a2505050565b60005473ffffffffffffffffffffffffffffffffffffffff163314611688576040517f08c379a000000000000000000000000000000000000000000000000000000000815260206004820181905260248201527f4f776e61626c653a2063616c6c6572206973206e6f7420746865206f776e6572604482015260640161057c565b600380547fffffffffffffffffffffffff00000000000000000000000000000000000000001673ffffffffffffffffffffffffffffffffffffffff92909216919091179055565b6005546040517f2f380b350000000000000000000000000000000000000000000000000000000081526004810184905260009173ffffffffffffffffffffffffffffffffffffffff1690632f380b359060240160a060405180830381865afa15801561173f573d6000803e3d6000fd5b505050506040513d601f19601f820116820180604052508101906117639190613fb7565b9050438160800151106117d2576040517f08c379a000000000000000000000000000000000000000000000000000000000815260206004820152601060248201527f4d46473a20706f6f6c206c6f636b656400000000000000000000000000000000604482015260640161057c565b600554604080517f1069f3b500000000000000000000000000000000000000000000000000000000815260048101869052336024820152815160009373ffffffffffffffffffffffffffffffffffffffff1692631069f3b592604480820193918290030181865afa15801561184b573d6000803e3d6000fd5b505050506040513d601f19601f8201168201806040525081019061186f9190613e5b565b805183519192509073ffffffffffffffffffffffffffffffffffffffff7f0000000000000000000000000000000000000000000000000000000000000000811691160361198c576040517ff29953b7000000000000000000000000000000000000000000000000000000008152600481018290523060248201527f000000000000000000000000000000000000000000000000000000000000000073ffffffffffffffffffffffffffffffffffffffff169063f29953b790604401600060405180830381600087803b15801561194457600080fd5b505af1158015611958573d6000803e3d6000fd5b505050506119877f0000000000000000000000000000000000000000000000000000000000000000858361359b565b6119af565b82516119af9073ffffffffffffffffffffffffffffffffffffffff16858361359b565b73ffffffffffffffffffffffffffffffffffffffff8416853373ffffffffffffffffffffffffffffffffffffffff167f2cac5e20e1541d836381527a43f651851e302817b71dc8e810284e69210c1c6b84604051611a0f91815260200190565b60405180910390a46000808352602083015260055473ffffffffffffffffffffffffffffffffffffffff16633224e6c98633856040518463ffffffff1660e01b8152600401611a6093929190613f3e565b600060405180830381600087803b158015611a7a57600080fd5b505af1158015611a8e573d6000803e3d6000fd5b505050505050505050565b60005473ffffffffffffffffffffffffffffffffffffffff163314611b1a576040517f08c379a000000000000000000000000000000000000000000000000000000000815260206004820181905260248201527f4f776e61626c653a2063616c6c6572206973206e6f7420746865206f776e6572604482015260640161057c565b60035473ffffffffffffffffffffffffffffffffffffffff16611b99576040517f08c379a000000000000000000000000000000000000000000000000000000000815260206004820152601460248201527f6d6967726174653a206e6f206d69677261746f72000000000000000000000000604482015260640161057c565b6005546040517f2f380b350000000000000000000000000000000000000000000000000000000081526004810183905260009173ffffffffffffffffffffffffffffffffffffffff1690632f380b359060240160a060405180830381865afa158015611c09573d6000803e3d6000fd5b505050506040513d601f19601f82011682018060405250810190611c2d9190613fb7565b80516040517f70a082310000000000000000000000000000000000000000000000000000000081523060048201529192509060009073ffffffffffffffffffffffffffffffffffffffff8316906370a0823190602401602060405180830381865afa158015611ca0573d6000803e3d6000fd5b505050506040513d601f19601f82011682018060405250810190611cc49190613e42565b600354909150611cee9073ffffffffffffffffffffffffffffffffffffffff848116911683613674565b6003546040517fce5494bb00000000000000000000000000000000000000000000000000000000815273ffffffffffffffffffffffffffffffffffffffff8481166004830152600092169063ce5494bb906024016020604051808303816000875af1158015611d61573d6000803e3d6000fd5b505050506040513d601f19601f82011682018060405250810190611d859190613f78565b6040517f70a0823100000000000000000000000000000000000000000000000000000000815230600482015290915073ffffffffffffffffffffffffffffffffffffffff8216906370a0823190602401602060405180830381865afa158015611df2573d6000803e3d6000fd5b505050506040513d601f19601f82011682018060405250810190611e169190613e42565b8214611e7e576040517f08c379a000000000000000000000000000000000000000000000000000000000815260206004820152600c60248201527f6d6967726174653a206261640000000000000000000000000000000000000000604482015260640161057c565b73ffffffffffffffffffffffffffffffffffffffff80821685526005546040517f91f317e40000000000000000000000000000000000000000000000000000000081529116906391f317e490611eda908890889060040161406a565b600060405180830381600087803b158015611ef457600080fd5b505af1158015611f08573d6000803e3d6000fd5b505050508073ffffffffffffffffffffffffffffffffffffffff168373ffffffffffffffffffffffffffffffffffffffff16867fbaf32c2f8f73faa74f515d888d4d105745b78814eaccf0210a19c24a5074201a85604051611f6c91815260200190565b60405180910390a45050505050565b611fc36040518060a00160405280600073ffffffffffffffffffffffffffffffffffffffff168152602001600081526020016000815260200160008152602001600081525090565b6005546040517f2f380b350000000000000000000000000000000000000000000000000000000081526004810184905260009173ffffffffffffffffffffffffffffffffffffffff1690632f380b359060240160a060405180830381865afa158015612033573d6000803e3d6000fd5b505050506040513d601f19601f820116820180604052508101906120579190613fb7565b90508060400151431161206a5792915050565b80516040517f70a0823100000000000000000000000000000000000000000000000000000000815230600482015260009173ffffffffffffffffffffffffffffffffffffffff16906370a0823190602401602060405180830381865afa1580156120d8573d6000803e3d6000fd5b505050506040513d601f19601f820116820180604052508101906120fc9190613e42565b9050806000036121a1574360408084019190915260055490517f91f317e400000000000000000000000000000000000000000000000000000000815273ffffffffffffffffffffffffffffffffffffffff909116906391f317e490612167908790869060040161406a565b600060405180830381600087803b15801561218157600080fd5b505af1158015612195573d6000803e3d6000fd5b50939695505050505050565b60006121bd6121b38460400151430390565b84602001516137d0565b90506121ce836060015182846137f2565b60608401526040517f40c10f19000000000000000000000000000000000000000000000000000000008152306004820152602481018290527f000000000000000000000000000000000000000000000000000000000000000073ffffffffffffffffffffffffffffffffffffffff16906340c10f1990604401600060405180830381600087803b15801561226157600080fd5b505af1158015612275573d6000803e3d6000fd5b50504360408087019190915260055490517f91f317e400000000000000000000000000000000000000000000000000000000815273ffffffffffffffffffffffffffffffffffffffff90911692506391f317e491506122da908890879060040161406a565b600060405180830381600087803b1580156122f457600080fd5b505af1158015612308573d6000803e3d6000fd5b5050505060408381015160608086015183519283526020830186905282840152915187927fcb7325664a4a3b7c7223eefc492a97ca4fdf94d46884621e5a8fae5a04b2b9d2928290030190a250909392505050565b600554604080517fb3944d52000000000000000000000000000000000000000000000000000000008152905160009273ffffffffffffffffffffffffffffffffffffffff169163b3944d529160048083019260209291908290030181865afa1580156123cd573d6000803e3d6000fd5b505050506040513d601f19601f820116820180604052508101906123f19190613e42565b905060005b818110156124105761240781611f7b565b506001016123f6565b5050565b61241c61381e565b565b600061242984611f7b565b6005546040517f1069f3b50000000000000000000000000000000000000000000000000000000081526004810187905273ffffffffffffffffffffffffffffffffffffffff858116602483015292935060009290911690631069f3b5906044016040805180830381865afa1580156124a5573d6000803e3d6000fd5b505050506040513d601f19601f820116820180604052508101906124c99190613e5b565b80519091506124d9908590614057565b8152606082015164e8d4a51000906124f19086613f00565b6124fb91906140ee565b8160200181815161250c9190614129565b9052506005546040517f3224e6c900000000000000000000000000000000000000000000000000000000815273ffffffffffffffffffffffffffffffffffffffff90911690633224e6c99061256990889087908690600401613f3e565b600060405180830381600087803b15801561258357600080fd5b505af1158015612597573d6000803e3d6000fd5b505050507f000000000000000000000000000000000000000000000000000000000000000073ffffffffffffffffffffffffffffffffffffffff16826000015173ffffffffffffffffffffffffffffffffffffffff16036126ca5761261f7f0000000000000000000000000000000000000000000000000000000000000000335b30876138a9565b6040517fea3b9ba1000000000000000000000000000000000000000000000000000000008152600481018590523060248201527f000000000000000000000000000000000000000000000000000000000000000073ffffffffffffffffffffffffffffffffffffffff169063ea3b9ba190604401600060405180830381600087803b1580156126ad57600080fd5b505af11580156126c1573d6000803e3d6000fd5b505050506126d6565b81516126d69033612618565b73ffffffffffffffffffffffffffffffffffffffff8316853373ffffffffffffffffffffffffffffffffffffffff167f02d7e648dd130fc184d383e55bb126ac4c9c60e8f94bf05acdf557ba2d540b4787604051611f6c91815260200190565b60408051808201909152600080825260208201526005546040517f1069f3b50000000000000000000000000000000000000000000000000000000081526004810185905273ffffffffffffffffffffffffffffffffffffffff848116602483015290911690631069f3b5906044016040805180830381865afa1580156127c0573d6000803e3d6000fd5b505050506040513d601f19601f820116820180604052508101906127e49190613e5b565b9392505050565b60005473ffffffffffffffffffffffffffffffffffffffff16331461286c576040517f08c379a000000000000000000000000000000000000000000000000000000000815260206004820181905260248201527f4f776e61626c653a2063616c6c6572206973206e6f7420746865206f776e6572604482015260640161057c565b6005546040517f2f380b350000000000000000000000000000000000000000000000000000000081526004810183905260009173ffffffffffffffffffffffffffffffffffffffff1690632f380b359060240160a060405180830381865afa1580156128dc573d6000803e3d6000fd5b505050506040513d601f19601f820116820180604052508101906129009190613fb7565b600254602082015191925003600255600060208201526005546040517f91f317e400000000000000000000000000000000000000000000000000000000815273ffffffffffffffffffffffffffffffffffffffff909116906391f317e49061296e908590859060040161406a565b600060405180830381600087803b15801561298857600080fd5b505af115801561299c573d6000803e3d6000fd5b505050505050565b60005473ffffffffffffffffffffffffffffffffffffffff163314612a25576040517f08c379a000000000000000000000000000000000000000000000000000000000815260206004820181905260248201527f4f776e61626c653a2063616c6c6572206973206e6f7420746865206f776e6572604482015260640161057c565b612a2d61235d565b60007f00000000000000000000000000000000000000000000000000000000000000004311612a7c577f0000000000000000000000000000000000000000000000000000000000000000612a7e565b435b905083600254612a8e9190614057565b60025573ffffffffffffffffffffffffffffffffffffffff7f0000000000000000000000000000000000000000000000000000000000000000811690841603612bce576040517f095ea7b300000000000000000000000000000000000000000000000000000000815273ffffffffffffffffffffffffffffffffffffffff7f000000000000000000000000000000000000000000000000000000000000000081811660048401527fffffffffffffffffffffffffffffffffffffffffffffffffffffffffffffffff602484015294507f0000000000000000000000000000000000000000000000000000000000000000169063095ea7b3906044016020604051808303816000875af1158015612ba8573d6000803e3d6000fd5b505050506040513d601f19601f82011682018060405250810190612bcc9190613f95565b505b6005546040805160a08101825273ffffffffffffffffffffffffffffffffffffffff868116825260208201889052918101849052600060608201529116906393bb3d4f906080810185612c22576000612c2c565b612c2c8686614057565b8152506040518263ffffffff1660e01b8152600401612c4b9190613d52565b600060405180830381600087803b158015612c6557600080fd5b505af1158015612c79573d6000803e3d6000fd5b505050508273ffffffffffffffffffffffffffffffffffffffff16612d4d600560009054906101000a900473ffffffffffffffffffffffffffffffffffffffff1673ffffffffffffffffffffffffffffffffffffffff1663b3944d526040518163ffffffff1660e01b8152600401602060405180830381865afa158015612d04573d6000803e3d6000fd5b505050506040513d601f19601f82011682018060405250810190612d289190613e42565b7fffffffffffffffffffffffffffffffffffffffffffffffffffffffffffffffff0190565b6040518681527f4710feb78e3bce8d2e3ca2989a8eb2f8bcd32a6a55b4535942c180fc4d2e29529060200160405180910390a350505050565b60005473ffffffffffffffffffffffffffffffffffffffff163314612e07576040517f08c379a000000000000000000000000000000000000000000000000000000000815260206004820181905260248201527f4f776e61626c653a2063616c6c6572206973206e6f7420746865206f776e6572604482015260640161057c565b612e0f61235d565b600155565b6000612e1f84611f7b565b905043816080015110612e8e576040517f08c379a000000000000000000000000000000000000000000000000000000000815260206004820152601060248201527f4d46473a20706f6f6c206c6f636b656400000000000000000000000000000000604482015260640161057c565b600554604080517f1069f3b500000000000000000000000000000000000000000000000000000000815260048101879052336024820152815160009373ffffffffffffffffffffffffffffffffffffffff1692631069f3b592604480820193918290030181865afa158015612f07573d6000803e3d6000fd5b505050506040513d601f19601f82011682018060405250810190612f2b9190613e5b565b805190915084811015612f9a576040517f08c379a000000000000000000000000000000000000000000000000000000000815260206004820181905260248201527f4d46473a20616d6f756e74206578656564732073746f72656420616d6f756e74604482015260640161057c565b60608301516020830151835160009190612fb990610764908590613f00565b612fc39190613f17565b6040517fa9059cbb00000000000000000000000000000000000000000000000000000000815273ffffffffffffffffffffffffffffffffffffffff8881166004830152602482018390529192507f00000000000000000000000000000000000000000000000000000000000000009091169063a9059cbb906044016020604051808303816000875af115801561305d573d6000803e3d6000fd5b505050506040513d601f19601f820116820180604052508101906130819190613f95565b5086830380855292506130976107648385613f00565b602085015260055473ffffffffffffffffffffffffffffffffffffffff16633224e6c98933876040518463ffffffff1660e01b81526004016130db93929190613f3e565b600060405180830381600087803b1580156130f557600080fd5b505af1158015613109573d6000803e3d6000fd5b505050507f000000000000000000000000000000000000000000000000000000000000000073ffffffffffffffffffffffffffffffffffffffff16856000015173ffffffffffffffffffffffffffffffffffffffff160361323a576040517ff29953b7000000000000000000000000000000000000000000000000000000008152600481018890523060248201527f000000000000000000000000000000000000000000000000000000000000000073ffffffffffffffffffffffffffffffffffffffff169063f29953b790604401600060405180830381600087803b1580156131f257600080fd5b505af1158015613206573d6000803e3d6000fd5b505050506132357f0000000000000000000000000000000000000000000000000000000000000000878961359b565b61325d565b845161325d9073ffffffffffffffffffffffffffffffffffffffff16878961359b565b73ffffffffffffffffffffffffffffffffffffffff8616883373ffffffffffffffffffffffffffffffffffffffff167f8166bf25f8a2b7ed3c85049207da4358d16edbed977d23fa2ee6f0dde3ec21328a6040516132bd91815260200190565b60405180910390a473ffffffffffffffffffffffffffffffffffffffff8616883373ffffffffffffffffffffffffffffffffffffffff167f21cbb56dd6543339d498c80d96e1552af32e753decefef74da4c5efef932dbd48460405161332591815260200190565b60405180910390a45050505050505050565b6005546040517f2f380b3500000000000000000000000000000000000000000000000000000000815260048101849052600091829173ffffffffffffffffffffffffffffffffffffffff90911690632f380b359060240160a060405180830381865afa1580156133ab573d6000803e3d6000fd5b505050506040513d601f19601f820116820180604052508101906133cf9190613fb7565b6005546040517f1069f3b50000000000000000000000000000000000000000000000000000000081526004810187905273ffffffffffffffffffffffffffffffffffffffff868116602483015292935060009290911690631069f3b5906044016040805180830381865afa15801561344b573d6000803e3d6000fd5b505050506040513d601f19601f8201168201806040525081019061346f9190613e5b565b606083015183516040517f70a08231000000000000000000000000000000000000000000000000000000008152306004820152929350909160009173ffffffffffffffffffffffffffffffffffffffff16906370a0823190602401602060405180830381865afa1580156134e7573d6000803e3d6000fd5b505050506040513d601f19601f8201168201806040525081019061350b9190613e42565b905083604001514311801561351f57508015155b1561354b57613548826135426135388760400151430390565b87602001516137d0565b836137f2565b91505b6020830151835161356190610764908590613f00565b61356b9190613f17565b979650505050505050565b61357f8161390d565b50565b6000818381613593576135936140bf565b049392505050565b60405173ffffffffffffffffffffffffffffffffffffffff831660248201526044810182905261366f9084907fa9059cbb00000000000000000000000000000000000000000000000000000000906064015b604080517fffffffffffffffffffffffffffffffffffffffffffffffffffffffffffffffe08184030181529190526020810180517bffffffffffffffffffffffffffffffffffffffffffffffffffffffff167fffffffff0000000000000000000000000000000000000000000000000000000090931692909217909152613a14565b505050565b80158061371457506040517fdd62ed3e00000000000000000000000000000000000000000000000000000000815230600482015273ffffffffffffffffffffffffffffffffffffffff838116602483015284169063dd62ed3e90604401602060405180830381865afa1580156136ee573d6000803e3d6000fd5b505050506040513d601f19601f820116820180604052508101906137129190613e42565b155b61377a576040517f08c379a000000000000000000000000000000000000000000000000000000000815260206004820152601e60248201527f5361666545524332303a206578706c6f697461626c6520617070726f76650000604482015260640161057c565b60405173ffffffffffffffffffffffffffffffffffffffff831660248201526044810182905261366f9084907f095ea7b300000000000000000000000000000000000000000000000000000000906064016135ed565b60006127e46137e0600154840290565b6137ea9085613f00565b600254613582565b600061380c61380664e8d4a5100085613f00565b83613582565b6138169085614057565b949350505050565b60005473ffffffffffffffffffffffffffffffffffffffff16331461389f576040517f08c379a000000000000000000000000000000000000000000000000000000000815260206004820181905260248201527f4f776e61626c653a2063616c6c6572206973206e6f7420746865206f776e6572604482015260640161057c565b61241c6000613afa565b60405173ffffffffffffffffffffffffffffffffffffffff808516602483015283166044820152606481018290526139079085907f23b872dd00000000000000000000000000000000000000000000000000000000906084016135ed565b50505050565b60005473ffffffffffffffffffffffffffffffffffffffff16331461398e576040517f08c379a000000000000000000000000000000000000000000000000000000000815260206004820181905260248201527f4f776e61626c653a2063616c6c6572206973206e6f7420746865206f776e6572604482015260640161057c565b73ffffffffffffffffffffffffffffffffffffffff8116613a0b576040517f08c379a000000000000000000000000000000000000000000000000000000000815260206004820181905260248201527f4f776e61626c653a206e6577206f776e65722069732061646472657373283029604482015260640161057c565b61357f81613afa565b6000613a76826040518060400160405280602081526020017f5361666545524332303a206c6f772d6c6576656c2063616c6c206661696c65648152508573ffffffffffffffffffffffffffffffffffffffff16613b6f9092919063ffffffff16565b80519091501561366f5780806020019051810190613a949190613f95565b61366f576040517f08c379a000000000000000000000000000000000000000000000000000000000815260206004820152601c60248201527f5361666545524332303a2045524332302063616c6c206661696c656400000000604482015260640161057c565b6000805473ffffffffffffffffffffffffffffffffffffffff8381167fffffffffffffffffffffffff0000000000000000000000000000000000000000831681178455604051919092169283917f8be0079c531659141344cd1fd0a4f28419497f9722a3daafe3b4186f6b6457e09190a35050565b606061381684846000858573ffffffffffffffffffffffffffffffffffffffff85163b613bf8576040517f08c379a000000000000000000000000000000000000000000000000000000000815260206004820152601d60248201527f416464726573733a2063616c6c20746f206e6f6e2d636f6e7472616374000000604482015260640161057c565b6000808673ffffffffffffffffffffffffffffffffffffffff168587604051613c219190614175565b60006040518083038185875af1925050503d8060008114613c5e576040519150601f19603f3d011682016040523d82523d6000602084013e613c63565b606091505b509150915061356b82828660608315613c7d5750816127e4565b825115613c8d5782518084602001fd5b816040517f08c379a000000000000000000000000000000000000000000000000000000000815260040161057c9190614191565b73ffffffffffffffffffffffffffffffffffffffff8116811461357f57600080fd5b600060208284031215613cf557600080fd5b81356127e481613cc1565b600080600060608486031215613d1557600080fd5b83359250602084013591506040840135613d2e81613cc1565b809150509250925092565b600060208284031215613d4b57600080fd5b5035919050565b60a08101611144828473ffffffffffffffffffffffffffffffffffffffff8151168252602081015160208301526040810151604083015260608101516060830152608081015160808301525050565b60008060408385031215613db457600080fd5b823591506020830135613dc681613cc1565b809150509250929050565b60008060408385031215613de457600080fd5b50508035926020909101359150565b815181526020808301519082015260408101611144565b600080600060608486031215613e1f57600080fd5b833592506020840135613e3181613cc1565b929592945050506040919091013590565b600060208284031215613e5457600080fd5b5051919050565b600060408284031215613e6d57600080fd5b6040516040810181811067ffffffffffffffff82111715613eb7577f4e487b7100000000000000000000000000000000000000000000000000000000600052604160045260246000fd5b604052825181526020928301519281019290925250919050565b7f4e487b7100000000000000000000000000000000000000000000000000000000600052601160045260246000fd5b808202811582820484141761114457611144613ed1565b8181036000831280158383131683831282161715613f3757613f37613ed1565b5092915050565b83815273ffffffffffffffffffffffffffffffffffffffff8316602082015260808101613816604083018480518252602090810151910152565b600060208284031215613f8a57600080fd5b81516127e481613cc1565b600060208284031215613fa757600080fd5b815180151581146127e457600080fd5b600060a08284031215613fc957600080fd5b60405160a0810181811067ffffffffffffffff82111715614013577f4e487b7100000000000000000000000000000000000000000000000000000000600052604160045260246000fd5b604052825161402181613cc1565b80825250602083015160208201526040830151604082015260608301516060820152608083015160808201528091505092915050565b8082018082111561114457611144613ed1565b82815260c081016127e4602083018473ffffffffffffffffffffffffffffffffffffffff8151168252602081015160208301526040810151604083015260608101516060830152608081015160808301525050565b7f4e487b7100000000000000000000000000000000000000000000000000000000600052601260045260246000fd5b600082614124577f4e487b7100000000000000000000000000000000000000000000000000000000600052601260045260246000fd5b500490565b808201828112600083128015821682158216171561414957614149613ed1565b505092915050565b60005b8381101561416c578181015183820152602001614154565b50506000910152565b60008251614187818460208701614151565b9190910192915050565b60208152600082518060208401526141b0816040850160208701614151565b601f017fffffffffffffffffffffffffffffffffffffffffffffffffffffffffffffffe016919091016040019291505056fea2646970667358221220c32d6643ef845edd02c5fd03076b4037d3a0934fdfdfe8c7e6e24c07dcabd41964736f6c63430008150033",
  "devdoc": {
    "events": {
      "OwnershipTransferred(address,address)": {
        "params": {
          "newOwner": "(indexed) The new owner of the contract.",
          "previousOwner": "(indexed) The owner of the contract until now."
        }
      }
    },
    "kind": "dev",
    "methods": {
      "add(uint256,address,uint256)": {
        "params": {
          "allocPoint": "AP of the new pool.",
          "lockPeriod": "Number of Blocks the pool should disallow withdraws of all kind.",
          "lpToken": "Address of the LP ERC-20 token."
        }
      }
    },
    "version": 1
  },
  "userdoc": {
    "events": {
      "OwnershipTransferred(address,address)": {
        "notice": "Emitted when ownership is moved from one address to another."
      }
    },
    "kind": "user",
    "methods": {
      "add(uint256,address,uint256)": {
        "notice": "Add a new LP to the pool. Can only be called by the owner. WARNING DO NOT add the same LP token more than once. Rewards will be messed up if you do."
      },
      "migrator()": {
        "notice": "Returns the current migrator."
      },
      "owner()": {
        "notice": "Returns the address of the current owner."
      },
      "renounceOwnership()": {
        "notice": "Leaves the contract without owner. Can only be called by the current owner."
      },
      "successor()": {
        "notice": "Returns the address of the sucessor."
      },
      "transferOwnership(address)": {
        "notice": "Transfers ownership of the contract to a new account (`newOwner`). Can only be called by the current owner."
      }
    },
    "version": 1
  },
  "storageLayout": {
    "storage": [
      {
        "astId": 12,
        "contract": "contracts/MagneticFieldGenerator.sol:MagneticFieldGenerator",
        "label": "_owner",
        "offset": 0,
        "slot": "0",
        "type": "t_address"
      },
      {
        "astId": 1015,
        "contract": "contracts/MagneticFieldGenerator.sol:MagneticFieldGenerator",
        "label": "_fermionPerBlock",
        "offset": 0,
        "slot": "1",
        "type": "t_uint256"
      },
      {
        "astId": 1017,
        "contract": "contracts/MagneticFieldGenerator.sol:MagneticFieldGenerator",
        "label": "_totalAllocPoint",
        "offset": 0,
        "slot": "2",
        "type": "t_uint256"
      },
      {
        "astId": 1023,
        "contract": "contracts/MagneticFieldGenerator.sol:MagneticFieldGenerator",
        "label": "_migrator",
        "offset": 0,
        "slot": "3",
        "type": "t_contract(IMigratorDevice)3019"
      },
      {
        "astId": 1026,
        "contract": "contracts/MagneticFieldGenerator.sol:MagneticFieldGenerator",
        "label": "_successor",
        "offset": 0,
        "slot": "4",
        "type": "t_contract(IMagneticFieldGenerator)2942"
      },
      {
        "astId": 1029,
        "contract": "contracts/MagneticFieldGenerator.sol:MagneticFieldGenerator",
        "label": "_store",
        "offset": 0,
        "slot": "5",
        "type": "t_contract(IMagneticFieldGeneratorStore)3002"
      }
    ],
    "types": {
      "t_address": {
        "encoding": "inplace",
        "label": "address",
        "numberOfBytes": "20"
      },
      "t_contract(IMagneticFieldGenerator)2942": {
        "encoding": "inplace",
        "label": "contract IMagneticFieldGenerator",
        "numberOfBytes": "20"
      },
      "t_contract(IMagneticFieldGeneratorStore)3002": {
        "encoding": "inplace",
        "label": "contract IMagneticFieldGeneratorStore",
        "numberOfBytes": "20"
      },
      "t_contract(IMigratorDevice)3019": {
        "encoding": "inplace",
        "label": "contract IMigratorDevice",
        "numberOfBytes": "20"
      },
      "t_uint256": {
        "encoding": "inplace",
        "label": "uint256",
        "numberOfBytes": "32"
      }
    }
  }
}