{
  "address": "0xDbadeFb972132C82BE8601Fa7b9Ba4801262271d",
  "abi": [
    {
      "inputs": [
        {
          "internalType": "contract IERC20Metadata",
          "name": "tokenInit",
          "type": "address"
        }
      ],
      "stateMutability": "nonpayable",
      "type": "constructor"
    },
    {
      "anonymous": false,
      "inputs": [
        {
          "indexed": true,
          "internalType": "address",
          "name": "owner",
          "type": "address"
        },
        {
          "indexed": true,
          "internalType": "address",
          "name": "spender",
          "type": "address"
        },
        {
          "indexed": false,
          "internalType": "uint256",
          "name": "value",
          "type": "uint256"
        }
      ],
      "name": "Approval",
      "type": "event"
    },
    {
      "anonymous": false,
      "inputs": [
        {
          "indexed": true,
          "internalType": "address",
          "name": "sender",
          "type": "address"
        },
        {
          "indexed": false,
          "internalType": "uint256",
          "name": "amount",
          "type": "uint256"
        },
        {
          "indexed": true,
          "internalType": "address",
          "name": "to",
          "type": "address"
        }
      ],
      "name": "Enter",
      "type": "event"
    },
    {
      "anonymous": false,
      "inputs": [
        {
          "indexed": true,
          "internalType": "address",
          "name": "sender",
          "type": "address"
        },
        {
          "indexed": false,
          "internalType": "uint256",
          "name": "amount",
          "type": "uint256"
        },
        {
          "indexed": true,
          "internalType": "address",
          "name": "to",
          "type": "address"
        }
      ],
      "name": "Leave",
      "type": "event"
    },
    {
      "anonymous": false,
      "inputs": [
        {
          "indexed": true,
          "internalType": "address",
          "name": "previousOwner",
          "type": "address"
        },
        {
          "indexed": true,
          "internalType": "address",
          "name": "newOwner",
          "type": "address"
        }
      ],
      "name": "OwnershipTransferred",
      "type": "event"
    },
    {
      "anonymous": false,
      "inputs": [
        {
          "indexed": true,
          "internalType": "address",
          "name": "from",
          "type": "address"
        },
        {
          "indexed": true,
          "internalType": "address",
          "name": "to",
          "type": "address"
        },
        {
          "indexed": false,
          "internalType": "uint256",
          "name": "value",
          "type": "uint256"
        }
      ],
      "name": "Transfer",
      "type": "event"
    },
    {
      "inputs": [
        {
          "internalType": "address",
          "name": "owner",
          "type": "address"
        },
        {
          "internalType": "address",
          "name": "spender",
          "type": "address"
        }
      ],
      "name": "allowance",
      "outputs": [
        {
          "internalType": "uint256",
          "name": "",
          "type": "uint256"
        }
      ],
      "stateMutability": "view",
      "type": "function"
    },
    {
      "inputs": [
        {
          "internalType": "address",
          "name": "spender",
          "type": "address"
        },
        {
          "internalType": "uint256",
          "name": "amount",
          "type": "uint256"
        }
      ],
      "name": "approve",
      "outputs": [
        {
          "internalType": "bool",
          "name": "",
          "type": "bool"
        }
      ],
      "stateMutability": "nonpayable",
      "type": "function"
    },
    {
      "inputs": [
        {
          "internalType": "address",
          "name": "account",
          "type": "address"
        }
      ],
      "name": "balanceOf",
      "outputs": [
        {
          "internalType": "uint256",
          "name": "",
          "type": "uint256"
        }
      ],
      "stateMutability": "view",
      "type": "function"
    },
    {
      "inputs": [],
      "name": "decimals",
      "outputs": [
        {
          "internalType": "uint8",
          "name": "",
          "type": "uint8"
        }
      ],
      "stateMutability": "pure",
      "type": "function"
    },
    {
      "inputs": [
        {
          "internalType": "address",
          "name": "spender",
          "type": "address"
        },
        {
          "internalType": "uint256",
          "name": "subtractedValue",
          "type": "uint256"
        }
      ],
      "name": "decreaseAllowance",
      "outputs": [
        {
          "internalType": "bool",
          "name": "",
          "type": "bool"
        }
      ],
      "stateMutability": "nonpayable",
      "type": "function"
    },
    {
      "inputs": [
        {
          "internalType": "uint256",
          "name": "amount",
          "type": "uint256"
        },
        {
          "internalType": "address",
          "name": "to",
          "type": "address"
        }
      ],
      "name": "enter",
      "outputs": [],
      "stateMutability": "nonpayable",
      "type": "function"
    },
    {
      "inputs": [
        {
          "internalType": "address",
          "name": "spender",
          "type": "address"
        },
        {
          "internalType": "uint256",
          "name": "addedValue",
          "type": "uint256"
        }
      ],
      "name": "increaseAllowance",
      "outputs": [
        {
          "internalType": "bool",
          "name": "",
          "type": "bool"
        }
      ],
      "stateMutability": "nonpayable",
      "type": "function"
    },
    {
      "inputs": [
        {
          "internalType": "uint256",
          "name": "amount",
          "type": "uint256"
        },
        {
          "internalType": "address",
          "name": "to",
          "type": "address"
        }
      ],
      "name": "leave",
      "outputs": [],
      "stateMutability": "nonpayable",
      "type": "function"
    },
    {
      "inputs": [],
      "name": "name",
      "outputs": [
        {
          "internalType": "string",
          "name": "",
          "type": "string"
        }
      ],
      "stateMutability": "view",
      "type": "function"
    },
    {
      "inputs": [],
      "name": "owner",
      "outputs": [
        {
          "internalType": "address",
          "name": "",
          "type": "address"
        }
      ],
      "stateMutability": "view",
      "type": "function"
    },
    {
      "inputs": [],
      "name": "renounceOwnership",
      "outputs": [],
      "stateMutability": "nonpayable",
      "type": "function"
    },
    {
      "inputs": [],
      "name": "symbol",
      "outputs": [
        {
          "internalType": "string",
          "name": "",
          "type": "string"
        }
      ],
      "stateMutability": "view",
      "type": "function"
    },
    {
      "inputs": [],
      "name": "token",
      "outputs": [
        {
          "internalType": "contract IERC20Metadata",
          "name": "",
          "type": "address"
        }
      ],
      "stateMutability": "view",
      "type": "function"
    },
    {
      "inputs": [],
      "name": "totalSupply",
      "outputs": [
        {
          "internalType": "uint256",
          "name": "",
          "type": "uint256"
        }
      ],
      "stateMutability": "view",
      "type": "function"
    },
    {
      "inputs": [
        {
          "internalType": "address",
          "name": "to",
          "type": "address"
        },
        {
          "internalType": "uint256",
          "name": "amount",
          "type": "uint256"
        }
      ],
      "name": "transfer",
      "outputs": [
        {
          "internalType": "bool",
          "name": "",
          "type": "bool"
        }
      ],
      "stateMutability": "nonpayable",
      "type": "function"
    },
    {
      "inputs": [
        {
          "internalType": "address",
          "name": "from",
          "type": "address"
        },
        {
          "internalType": "address",
          "name": "to",
          "type": "address"
        },
        {
          "internalType": "uint256",
          "name": "amount",
          "type": "uint256"
        }
      ],
      "name": "transferFrom",
      "outputs": [
        {
          "internalType": "bool",
          "name": "",
          "type": "bool"
        }
      ],
      "stateMutability": "nonpayable",
      "type": "function"
    },
    {
      "inputs": [
        {
          "internalType": "address",
          "name": "newOwner",
          "type": "address"
        }
      ],
      "name": "transferOwnership",
      "outputs": [],
      "stateMutability": "nonpayable",
      "type": "function"
    }
  ],
  "transactionHash": "0x8547e20afd2b9ffd146c47bdcbaa8eec2713b3c6f9ce69a161db079ce7fdd529",
  "args": [
    "0xB3acCd620760C8F980cbBb0Bc4BE9FcA83C5eD87"
  ],
  "numDeployments": 1,
  "solcInputHash": "4da8a35d5c03f52723593457fec5c208",
  "bytecode": "0x60a06040523480156200001157600080fd5b5060405162001bcf38038062001bcf833981016040819052620000349162000113565b60405180604001604052806006815260200165141b185b995d60d21b815250604051806040016040528060078152602001664752415649545960c81b8152506200008d62000087620000bf60201b60201c565b620000c3565b60046200009b8382620001ea565b506005620000aa8282620001ea565b5050506001600160a01b0316608052620002b6565b3390565b600080546001600160a01b038381166001600160a01b0319831681178455604051919092169283917f8be0079c531659141344cd1fd0a4f28419497f9722a3daafe3b4186f6b6457e09190a35050565b6000602082840312156200012657600080fd5b81516001600160a01b03811681146200013e57600080fd5b9392505050565b634e487b7160e01b600052604160045260246000fd5b600181811c908216806200017057607f821691505b6020821081036200019157634e487b7160e01b600052602260045260246000fd5b50919050565b601f821115620001e557600081815260208120601f850160051c81016020861015620001c05750805b601f850160051c820191505b81811015620001e157828155600101620001cc565b5050505b505050565b81516001600160401b0381111562000206576200020662000145565b6200021e816200021784546200015b565b8462000197565b602080601f8311600181146200025657600084156200023d5750858301515b600019600386901b1c1916600185901b178555620001e1565b600085815260208120601f198616915b82811015620002875788860151825594840194600190910190840162000266565b5085821015620002a65787850151600019600388901b60f8161c191681555b5050505050600190811b01905550565b6080516118e8620002e7600039600081816102d601528181610306015281816106de01526107e701526118e86000f3fe608060405234801561001057600080fd5b506004361061011b5760003560e01c80638da5cb5b116100b2578063dd62ed3e11610081578063f29953b711610066578063f29953b7146102ae578063f2fde38b146102c1578063fc0c546a146102d457600080fd5b8063dd62ed3e14610255578063ea3b9ba11461029b57600080fd5b80638da5cb5b146101e857806395d89b4114610227578063a457c2d71461022f578063a9059cbb1461024257600080fd5b8063313ce567116100ee578063313ce56714610186578063395093511461019557806370a08231146101a8578063715018a6146101de57600080fd5b806306fdde0314610120578063095ea7b31461013e57806318160ddd1461016157806323b872dd14610173575b600080fd5b6101286102fa565b6040516101359190611534565b60405180910390f35b61015161014c3660046115ae565b6103da565b6040519015158152602001610135565b6001545b604051908152602001610135565b6101516101813660046115d8565b6103f4565b60405160128152602001610135565b6101516101a33660046115ae565b61041a565b6101656101b6366004611614565b73ffffffffffffffffffffffffffffffffffffffff1660009081526002602052604090205490565b6101e6610466565b005b60005473ffffffffffffffffffffffffffffffffffffffff165b60405173ffffffffffffffffffffffffffffffffffffffff9091168152602001610135565b6101286104f8565b61015161023d3660046115ae565b61058a565b6101516102503660046115ae565b610640565b61016561026336600461162f565b73ffffffffffffffffffffffffffffffffffffffff918216600090815260036020908152604080832093909416825291909152205490565b6101e66102a9366004611662565b61064e565b6101e66102bc366004611662565b610757565b6101e66102cf366004611614565b610857565b7f0000000000000000000000000000000000000000000000000000000000000000610202565b6060610304610961565b7f000000000000000000000000000000000000000000000000000000000000000073ffffffffffffffffffffffffffffffffffffffff166395d89b416040518163ffffffff1660e01b8152600401600060405180830381865afa15801561036f573d6000803e3d6000fd5b505050506040513d6000823e601f3d9081017fffffffffffffffffffffffffffffffffffffffffffffffffffffffffffffffe01682016040526103b591908101906116b4565b6040516020016103c6929190611774565b604051602081830303815290604052905090565b6000336103e8818585610970565b60019150505b92915050565b600033610402858285610ad9565b61040d858585610bb0565b60019150505b9392505050565b33600081815260036020908152604080832073ffffffffffffffffffffffffffffffffffffffff871684529091528120549091906103e890829086906104619087906117fb565b610970565b60005473ffffffffffffffffffffffffffffffffffffffff1633146104ec576040517f08c379a000000000000000000000000000000000000000000000000000000000815260206004820181905260248201527f4f776e61626c653a2063616c6c6572206973206e6f7420746865206f776e657260448201526064015b60405180910390fd5b6104f66000610df2565b565b6060600580546105079061180e565b80601f01602080910402602001604051908101604052809291908181526020018280546105339061180e565b80156105805780601f1061055557610100808354040283529160200191610580565b820191906000526020600020905b81548152906001019060200180831161056357829003601f168201915b5050505050905090565b33600081815260036020908152604080832073ffffffffffffffffffffffffffffffffffffffff8716845290915281205490919083811015610628576040517f08c379a000000000000000000000000000000000000000000000000000000000815260206004820181905260248201527f45524332303a207265647563656420616c6c6f77616e63652062656c6f77203060448201526064016104e3565b6106358286868403610970565b506001949350505050565b6000336103e8818585610bb0565b60005473ffffffffffffffffffffffffffffffffffffffff1633146106cf576040517f08c379a000000000000000000000000000000000000000000000000000000000815260206004820181905260248201527f4f776e61626c653a2063616c6c6572206973206e6f7420746865206f776e657260448201526064016104e3565b6106d98183610e67565b6107057f0000000000000000000000000000000000000000000000000000000000000000333085610f80565b60405182815273ffffffffffffffffffffffffffffffffffffffff82169033907feb641848eb69677a74e1293a4a9e0b68f80b85c314209030ea216369d2e1819a906020015b60405180910390a35050565b60005473ffffffffffffffffffffffffffffffffffffffff1633146107d8576040517f08c379a000000000000000000000000000000000000000000000000000000000815260206004820181905260248201527f4f776e61626c653a2063616c6c6572206973206e6f7420746865206f776e657260448201526064016104e3565b6107e2338361105c565b61080d7f000000000000000000000000000000000000000000000000000000000000000082846111f5565b60405182815273ffffffffffffffffffffffffffffffffffffffff82169033907f2d134ecd2970b3d310c292bce33f7ea2dc71cb1890b8dd114445d8078a5081db9060200161074b565b60005473ffffffffffffffffffffffffffffffffffffffff1633146108d8576040517f08c379a000000000000000000000000000000000000000000000000000000000815260206004820181905260248201527f4f776e61626c653a2063616c6c6572206973206e6f7420746865206f776e657260448201526064016104e3565b73ffffffffffffffffffffffffffffffffffffffff8116610955576040517f08c379a000000000000000000000000000000000000000000000000000000000815260206004820181905260248201527f4f776e61626c653a206e6577206f776e6572206973206164647265737328302960448201526064016104e3565b61095e81610df2565b50565b6060600480546105079061180e565b73ffffffffffffffffffffffffffffffffffffffff83166109ed576040517f08c379a000000000000000000000000000000000000000000000000000000000815260206004820152601e60248201527f45524332303a20617070726f76652066726f6d2061646472657373283029000060448201526064016104e3565b73ffffffffffffffffffffffffffffffffffffffff8216610a6a576040517f08c379a000000000000000000000000000000000000000000000000000000000815260206004820152601c60248201527f45524332303a20617070726f766520746f20616464726573732830290000000060448201526064016104e3565b73ffffffffffffffffffffffffffffffffffffffff83811660008181526003602090815260408083209487168084529482529182902085905590518481527f8c5be1e5ebec7d5bd14f71427d1e84f3dd0314c0f7b2291e5b200ac8c7c3b92591015b60405180910390a3505050565b73ffffffffffffffffffffffffffffffffffffffff8381166000908152600360209081526040808320938616835292905220547fffffffffffffffffffffffffffffffffffffffffffffffffffffffffffffffff8114610baa5781811015610b9d576040517f08c379a000000000000000000000000000000000000000000000000000000000815260206004820152601d60248201527f45524332303a20696e73756666696369656e7420616c6c6f77616e636500000060448201526064016104e3565b610baa8484848403610970565b50505050565b73ffffffffffffffffffffffffffffffffffffffff8316610c2d576040517f08c379a000000000000000000000000000000000000000000000000000000000815260206004820152601f60248201527f45524332303a207472616e736665722066726f6d20616464726573732830290060448201526064016104e3565b73ffffffffffffffffffffffffffffffffffffffff8216610caa576040517f08c379a000000000000000000000000000000000000000000000000000000000815260206004820152601d60248201527f45524332303a207472616e7366657220746f206164647265737328302900000060448201526064016104e3565b73ffffffffffffffffffffffffffffffffffffffff831660009081526002602052604090205481811015610d3a576040517f08c379a000000000000000000000000000000000000000000000000000000000815260206004820152601f60248201527f45524332303a207472616e7366657220657863656564732062616c616e63650060448201526064016104e3565b73ffffffffffffffffffffffffffffffffffffffff808516600090815260026020526040808220858503905591851681529081208054849290610d7e9084906117fb565b925050819055508273ffffffffffffffffffffffffffffffffffffffff168473ffffffffffffffffffffffffffffffffffffffff167fddf252ad1be2c89b69c2b068fc378daa952ba7f163c4a11628f55a4df523b3ef84604051610de491815260200190565b60405180910390a350505050565b6000805473ffffffffffffffffffffffffffffffffffffffff8381167fffffffffffffffffffffffff0000000000000000000000000000000000000000831681178455604051919092169283917f8be0079c531659141344cd1fd0a4f28419497f9722a3daafe3b4186f6b6457e09190a35050565b73ffffffffffffffffffffffffffffffffffffffff8216610ee4576040517f08c379a000000000000000000000000000000000000000000000000000000000815260206004820152601960248201527f45524332303a206d696e7420746f20616464726573732830290000000000000060448201526064016104e3565b8060016000828254610ef691906117fb565b909155505073ffffffffffffffffffffffffffffffffffffffff821660009081526002602052604081208054839290610f309084906117fb565b909155505060405181815273ffffffffffffffffffffffffffffffffffffffff8316906000907fddf252ad1be2c89b69c2b068fc378daa952ba7f163c4a11628f55a4df523b3ef9060200161074b565b60405173ffffffffffffffffffffffffffffffffffffffff80851660248301528316604482015260648101829052610baa9085907f23b872dd00000000000000000000000000000000000000000000000000000000906084015b604080517fffffffffffffffffffffffffffffffffffffffffffffffffffffffffffffffe08184030181529190526020810180517bffffffffffffffffffffffffffffffffffffffffffffffffffffffff167fffffffff0000000000000000000000000000000000000000000000000000000090931692909217909152611250565b73ffffffffffffffffffffffffffffffffffffffff82166110d9576040517f08c379a000000000000000000000000000000000000000000000000000000000815260206004820152601b60248201527f45524332303a206275726e2066726f6d2061646472657373283029000000000060448201526064016104e3565b73ffffffffffffffffffffffffffffffffffffffff821660009081526002602052604090205481811015611169576040517f08c379a000000000000000000000000000000000000000000000000000000000815260206004820152601b60248201527f45524332303a206275726e20657863656564732062616c616e6365000000000060448201526064016104e3565b73ffffffffffffffffffffffffffffffffffffffff831660009081526002602052604081208383039055600180548492906111a5908490611861565b909155505060405182815260009073ffffffffffffffffffffffffffffffffffffffff8516907fddf252ad1be2c89b69c2b068fc378daa952ba7f163c4a11628f55a4df523b3ef90602001610acc565b60405173ffffffffffffffffffffffffffffffffffffffff831660248201526044810182905261124b9084907fa9059cbb0000000000000000000000000000000000000000000000000000000090606401610fda565b505050565b60006112b2826040518060400160405280602081526020017f5361666545524332303a206c6f772d6c6576656c2063616c6c206661696c65648152508573ffffffffffffffffffffffffffffffffffffffff166113369092919063ffffffff16565b80519091501561124b57808060200190518101906112d09190611874565b61124b576040517f08c379a000000000000000000000000000000000000000000000000000000000815260206004820152601c60248201527f5361666545524332303a2045524332302063616c6c206661696c65640000000060448201526064016104e3565b6060611345848460008561134d565b949350505050565b6060824710156113b9576040517f08c379a000000000000000000000000000000000000000000000000000000000815260206004820181905260248201527f416464726573733a2062616c616e636520746f206c6f7720666f722063616c6c60448201526064016104e3565b73ffffffffffffffffffffffffffffffffffffffff85163b611437576040517f08c379a000000000000000000000000000000000000000000000000000000000815260206004820152601d60248201527f416464726573733a2063616c6c20746f206e6f6e2d636f6e747261637400000060448201526064016104e3565b6000808673ffffffffffffffffffffffffffffffffffffffff1685876040516114609190611896565b60006040518083038185875af1925050503d806000811461149d576040519150601f19603f3d011682016040523d82523d6000602084013e6114a2565b606091505b50915091506114b28282866114bd565b979650505050505050565b606083156114cc575081610413565b8251156114dc5782518084602001fd5b816040517f08c379a00000000000000000000000000000000000000000000000000000000081526004016104e39190611534565b60005b8381101561152b578181015183820152602001611513565b50506000910152565b6020815260008251806020840152611553816040850160208701611510565b601f017fffffffffffffffffffffffffffffffffffffffffffffffffffffffffffffffe0169190910160400192915050565b803573ffffffffffffffffffffffffffffffffffffffff811681146115a957600080fd5b919050565b600080604083850312156115c157600080fd5b6115ca83611585565b946020939093013593505050565b6000806000606084860312156115ed57600080fd5b6115f684611585565b925061160460208501611585565b9150604084013590509250925092565b60006020828403121561162657600080fd5b61041382611585565b6000806040838503121561164257600080fd5b61164b83611585565b915061165960208401611585565b90509250929050565b6000806040838503121561167557600080fd5b8235915061165960208401611585565b7f4e487b7100000000000000000000000000000000000000000000000000000000600052604160045260246000fd5b6000602082840312156116c657600080fd5b815167ffffffffffffffff808211156116de57600080fd5b818401915084601f8301126116f257600080fd5b81518181111561170457611704611685565b604051601f82017fffffffffffffffffffffffffffffffffffffffffffffffffffffffffffffffe0908116603f0116810190838211818310171561174a5761174a611685565b8160405282815287602084870101111561176357600080fd5b6114b2836020830160208801611510565b60008351611786818460208801611510565b7f200000000000000000000000000000000000000000000000000000000000000090830190815283516117c0816001840160208801611510565b01600101949350505050565b7f4e487b7100000000000000000000000000000000000000000000000000000000600052601160045260246000fd5b808201808211156103ee576103ee6117cc565b600181811c9082168061182257607f821691505b60208210810361185b577f4e487b7100000000000000000000000000000000000000000000000000000000600052602260045260246000fd5b50919050565b818103818111156103ee576103ee6117cc565b60006020828403121561188657600080fd5b8151801515811461041357600080fd5b600082516118a8818460208701611510565b919091019291505056fea264697066735822122079eb45a6d75cd8ea481bd039b43985342e1dc91cd83798d6fe9684fad75ae97f64736f6c63430008110033",
  "devdoc": {
    "kind": "dev",
    "methods": {
      "owner()": {
        "returns": {
          "_0": "The current owner."
        }
      },
      "renounceOwnership()": {
        "details": "Sets the zero address as the new contract owner."
      },
      "transferOwnership(address)": {
        "params": {
          "newOwner": "The new owner of the contract."
        }
      }
    },
    "version": 1
  },
  "userdoc": {
    "events": {
      "Approval(address,address,uint256)": {
        "notice": "Emitted when the allowance of a {spender} for an {owner} is set to a new value. NOTE: {value} may be zero."
      },
      "OwnershipTransferred(address,address)": {
        "notice": "Emitted when ownership is moved from one address to another."
      },
      "Transfer(address,address,uint256)": {
        "notice": "Emitted when {value} tokens are moved from one address {from} to another {to}. NOTE: {value} may be zero."
      }
    },
    "kind": "user",
    "methods": {
      "allowance(address,address)": {
        "notice": "See {IERC20-allowance}."
      },
      "approve(address,uint256)": {
        "notice": "See {IERC20-approve}. NOTE: If `amount` is the maximum `uint256`, the allowance is not updated on `transferFrom`. This is semantically equivalent to an infinite approval. Requirements: - `spender` cannot be the zero address."
      },
      "balanceOf(address)": {
        "notice": "See {IERC20-balanceOf}."
      },
      "decimals()": {
        "notice": "Returns the number of decimals used to get its user representation. For example, if `decimals` equals `2`, a balance of `505` tokens should be displayed to a user as `5.05` (`505 / 10 ** 2`). Tokens usually opt for a value of 18, imitating the relationship between Ether and Wei. This is the value {ERC20} uses, unless this function is overridden; NOTE: This information is only used for _display_ purposes: it in no way affects any of the arithmetic of the contract, including {IERC20-balanceOf} and {IERC20-transfer}."
      },
      "decreaseAllowance(address,uint256)": {
        "notice": "Atomically decreases the allowance granted to `spender` by the caller. This is an alternative to {approve} that can be used as a mitigation for problems described in {IERC20-approve}. Emits an {Approval} event indicating the updated allowance. Requirements: - `spender` cannot be the zero address. - `spender` must have allowance for the caller of at least `subtractedValue`."
      },
      "increaseAllowance(address,uint256)": {
        "notice": "Atomically increases the allowance granted to `spender` by the caller. This is an alternative to {approve} that can be used as a mitigation for problems described in {IERC20-approve}. Emits an {Approval} event indicating the updated allowance. Requirements: - `spender` cannot be the zero address."
      },
      "owner()": {
        "notice": "Returns the current owner."
      },
      "renounceOwnership()": {
        "notice": "Leaves the contract without an owner. It will not be possible to call {onlyOwner} functions anymore. NOTE: Renouncing ownership will leave the contract without an owner, thereby removing any functionality that is only available to the owner. Emits an [`OwnershipTransferred`](#ownershiptransferred) event indicating the renounced ownership. Requirements: - Can only be called by the current owner. "
      },
      "symbol()": {
        "notice": "Returns the symbol of the token, usually a shorter version of the name."
      },
      "totalSupply()": {
        "notice": "See {IERC20-totalSupply}."
      },
      "transfer(address,uint256)": {
        "notice": "See {IERC20-transfer}. Requirements: - `to` cannot be the zero address. - the caller must have a balance of at least `amount`."
      },
      "transferFrom(address,address,uint256)": {
        "notice": "See {IERC20-transferFrom}. Emits an {Approval} event indicating the updated allowance. This is not required by the EIP. See the note at the beginning of {ERC20}. NOTE: Does not update the allowance if the current allowance is the maximum `uint256`. Requirements: - `from` and `to` cannot be the zero address. - `from` must have a balance of at least `amount`. - the caller must have allowance for ``from``'s tokens of at least `amount`."
      },
      "transferOwnership(address)": {
        "notice": "Transfers ownership of the contract to a new address. Emits an [`OwnershipTransferred`](#ownershiptransferred) event indicating the transfered ownership. Requirements: - Can only be called by the current owner."
      }
    },
    "version": 1
  },
  "storageLayout": {
    "storage": [
      {
        "astId": 10,
        "contract": "contracts/Planet.sol:Planet",
        "label": "_owner",
        "offset": 0,
        "slot": "0",
        "type": "t_address"
      },
      {
        "astId": 293,
        "contract": "contracts/Planet.sol:Planet",
        "label": "_totalSupply",
        "offset": 0,
        "slot": "1",
        "type": "t_uint256"
      },
      {
        "astId": 297,
        "contract": "contracts/Planet.sol:Planet",
        "label": "_balances",
        "offset": 0,
        "slot": "2",
        "type": "t_mapping(t_address,t_uint256)"
      },
      {
        "astId": 303,
        "contract": "contracts/Planet.sol:Planet",
        "label": "_allowances",
        "offset": 0,
        "slot": "3",
        "type": "t_mapping(t_address,t_mapping(t_address,t_uint256))"
      },
      {
        "astId": 305,
        "contract": "contracts/Planet.sol:Planet",
        "label": "_name",
        "offset": 0,
        "slot": "4",
        "type": "t_string_storage"
      },
      {
        "astId": 307,
        "contract": "contracts/Planet.sol:Planet",
        "label": "_symbol",
        "offset": 0,
        "slot": "5",
        "type": "t_string_storage"
      }
    ],
    "types": {
      "t_address": {
        "encoding": "inplace",
        "label": "address",
        "numberOfBytes": "20"
      },
      "t_mapping(t_address,t_mapping(t_address,t_uint256))": {
        "encoding": "mapping",
        "key": "t_address",
        "label": "mapping(address => mapping(address => uint256))",
        "numberOfBytes": "32",
        "value": "t_mapping(t_address,t_uint256)"
      },
      "t_mapping(t_address,t_uint256)": {
        "encoding": "mapping",
        "key": "t_address",
        "label": "mapping(address => uint256)",
        "numberOfBytes": "32",
        "value": "t_uint256"
      },
      "t_string_storage": {
        "encoding": "bytes",
        "label": "string",
        "numberOfBytes": "32"
      },
      "t_uint256": {
        "encoding": "inplace",
        "label": "uint256",
        "numberOfBytes": "32"
      }
    }
  }
}