{
  "address": "0x442160Cb475Df843f8063f66b8D0A6b42ac6eC6c",
  "abi": [
    {
      "inputs": [
        {
          "internalType": "address",
          "name": "beneficiaryAddress",
          "type": "address"
        },
        {
          "internalType": "address",
          "name": "planet",
          "type": "address"
        }
      ],
      "stateMutability": "nonpayable",
      "type": "constructor"
    },
    {
      "inputs": [],
      "name": "beneficiary",
      "outputs": [
        {
          "internalType": "address",
          "name": "",
          "type": "address"
        }
      ],
      "stateMutability": "view",
      "type": "function"
    },
    {
      "inputs": [
        {
          "internalType": "contract IERC20",
          "name": "src",
          "type": "address"
        }
      ],
      "name": "migrate",
      "outputs": [
        {
          "internalType": "address",
          "name": "",
          "type": "address"
        }
      ],
      "stateMutability": "nonpayable",
      "type": "function"
    }
  ],
  "transactionHash": "0x74dd3921a2e0a4a4a7e6263ac9a3e156a4475606d50893ec80cb4c2a12f244e3",
  "args": [
    "0x90C2F531c6600DBC6FbfAc9aA8839c1dA61557d9",
    "0x2f10B2756164e72ED6c803e0B1511C56C5D72cfb"
  ],
  "numDeployments": 12,
  "solcInputHash": "76e4ffd4d03eb5b1b8f82c2a9a7065d6",
  "bytecode": "0x60c060405234801561001057600080fd5b5060405161058538038061058583398101604081905261002f91610062565b6001600160a01b039182166080521660a052610095565b80516001600160a01b038116811461005d57600080fd5b919050565b6000806040838503121561007557600080fd5b61007e83610046565b915061008c60208401610046565b90509250929050565b60805160a0516104b76100ce6000396000818161029c0152818161038501526103e0015260008181603d015261035d01526104b76000f3fe608060405234801561001057600080fd5b50600436106100365760003560e01c806338af3eed1461003b578063ce5494bb14610086575b600080fd5b7f00000000000000000000000000000000000000000000000000000000000000005b60405173ffffffffffffffffffffffffffffffffffffffff909116815260200160405180910390f35b61005d610094366004610409565b600073ffffffffffffffffffffffffffffffffffffffff8216737d5e85d281ce6e93c6d17b4887e58242a23703c31461012d576040517f08c379a000000000000000000000000000000000000000000000000000000000815260206004820152601e60248201527f4665724d69677261746f723a204e6f74204665726d696f6e20746f6b656e0000604482015260640160405180910390fd5b6040517f70a0823100000000000000000000000000000000000000000000000000000000815233600482015260009073ffffffffffffffffffffffffffffffffffffffff8416906370a0823190602401602060405180830381865afa15801561019a573d6000803e3d6000fd5b505050506040513d601f19601f820116820180604052508101906101be9190610446565b6040517f23b872dd0000000000000000000000000000000000000000000000000000000081523360048201523060248201526044810182905290915073ffffffffffffffffffffffffffffffffffffffff8416906323b872dd906064016020604051808303816000875af115801561023a573d6000803e3d6000fd5b505050506040513d601f19601f8201168201806040525081019061025e919061045f565b506040517f095ea7b300000000000000000000000000000000000000000000000000000000815273ffffffffffffffffffffffffffffffffffffffff7f0000000000000000000000000000000000000000000000000000000000000000811660048301526024820183905284169063095ea7b3906044016020604051808303816000875af11580156102f4573d6000803e3d6000fd5b505050506040513d601f19601f82011682018060405250810190610318919061045f565b506040517fea3b9ba10000000000000000000000000000000000000000000000000000000081526004810182905273ffffffffffffffffffffffffffffffffffffffff7f0000000000000000000000000000000000000000000000000000000000000000811660248301527f0000000000000000000000000000000000000000000000000000000000000000169063ea3b9ba190604401600060405180830381600087803b1580156103c957600080fd5b505af11580156103dd573d6000803e3d6000fd5b507f00000000000000000000000000000000000000000000000000000000000000009695505050505050565b60006020828403121561041b57600080fd5b813573ffffffffffffffffffffffffffffffffffffffff8116811461043f57600080fd5b9392505050565b60006020828403121561045857600080fd5b5051919050565b60006020828403121561047157600080fd5b8151801515811461043f57600080fdfea264697066735822122015558f74a4b2a08c5beba9b134ac97b8d98286f00a2f4cf95783efc2765c032764736f6c63430008100033",
  "devdoc": {
    "kind": "dev",
    "methods": {},
    "version": 1
  },
  "userdoc": {
    "kind": "user",
    "methods": {},
    "version": 1
  },
  "storageLayout": {
    "storage": [],
    "types": null
  }
}