{
  "address": "0x3D239860aF8B965FB2C3bd5837930d9eC85af2E8",
  "abi": [
    {
      "inputs": [
        {
          "internalType": "uint256",
          "name": "lowerLimit",
          "type": "uint256"
        },
        {
          "internalType": "uint256",
          "name": "upperLimit",
          "type": "uint256"
        },
        {
          "internalType": "contract IFermion",
          "name": "fermion",
          "type": "address"
        },
        {
          "internalType": "uint256",
          "name": "rate",
          "type": "uint256"
        }
      ],
      "stateMutability": "nonpayable",
      "type": "constructor"
    },
    {
      "anonymous": false,
      "inputs": [
        {
          "indexed": true,
          "internalType": "address",
          "name": "user",
          "type": "address"
        },
        {
          "indexed": false,
          "internalType": "uint256",
          "name": "ethAmount",
          "type": "uint256"
        },
        {
          "indexed": false,
          "internalType": "uint256",
          "name": "fermionAmount",
          "type": "uint256"
        }
      ],
      "name": "Buy",
      "type": "event"
    },
    {
      "anonymous": false,
      "inputs": [
        {
          "indexed": true,
          "internalType": "address",
          "name": "previousOwner",
          "type": "address"
        },
        {
          "indexed": true,
          "internalType": "address",
          "name": "newOwner",
          "type": "address"
        }
      ],
      "name": "OwnershipTransferred",
      "type": "event"
    },
    {
      "inputs": [],
      "name": "buyFermion",
      "outputs": [],
      "stateMutability": "payable",
      "type": "function"
    },
    {
      "inputs": [],
      "name": "disable",
      "outputs": [],
      "stateMutability": "nonpayable",
      "type": "function"
    },
    {
      "inputs": [],
      "name": "getFermionAddress",
      "outputs": [
        {
          "internalType": "contract IFermion",
          "name": "",
          "type": "address"
        }
      ],
      "stateMutability": "view",
      "type": "function"
    },
    {
      "inputs": [],
      "name": "getLowerEthLimit",
      "outputs": [
        {
          "internalType": "uint256",
          "name": "",
          "type": "uint256"
        }
      ],
      "stateMutability": "view",
      "type": "function"
    },
    {
      "inputs": [],
      "name": "getRate",
      "outputs": [
        {
          "internalType": "uint256",
          "name": "",
          "type": "uint256"
        }
      ],
      "stateMutability": "view",
      "type": "function"
    },
    {
      "inputs": [],
      "name": "getUpperEthLimit",
      "outputs": [
        {
          "internalType": "uint256",
          "name": "",
          "type": "uint256"
        }
      ],
      "stateMutability": "view",
      "type": "function"
    },
    {
      "inputs": [],
      "name": "isActive",
      "outputs": [
        {
          "internalType": "bool",
          "name": "",
          "type": "bool"
        }
      ],
      "stateMutability": "view",
      "type": "function"
    },
    {
      "inputs": [],
      "name": "owner",
      "outputs": [
        {
          "internalType": "address",
          "name": "",
          "type": "address"
        }
      ],
      "stateMutability": "view",
      "type": "function"
    },
    {
      "inputs": [],
      "name": "renounceOwnership",
      "outputs": [],
      "stateMutability": "nonpayable",
      "type": "function"
    },
    {
      "inputs": [
        {
          "internalType": "contract IERC20",
          "name": "token",
          "type": "address"
        }
      ],
      "name": "transferOtherERC20Token",
      "outputs": [
        {
          "internalType": "bool",
          "name": "",
          "type": "bool"
        }
      ],
      "stateMutability": "nonpayable",
      "type": "function"
    },
    {
      "inputs": [
        {
          "internalType": "address",
          "name": "newOwner",
          "type": "address"
        }
      ],
      "name": "transferOwnership",
      "outputs": [],
      "stateMutability": "nonpayable",
      "type": "function"
    }
  ],
  "transactionHash": "0xaaef18cd7183519f331fec113631f67da84f3360e18374471990200d569e0c9c",
  "args": [
    "100000000000000000",
    "3000000000000000000",
    "0x6D4e23C1B39F42a676BCE13E3b2b0CC6ea7F405E",
    "12000"
  ],
  "numDeployments": 1,
  "solcInputHash": "826e7e16b5d1f5f6401540a40e57637d",
  "bytecode": "0x61010060405234801561001157600080fd5b5060405161145d38038061145d83398101604081905261003091610152565b61003933610102565b6000811161007d5760405162461bcd60e51b815260206004820152600c60248201526b046523a2052617465203c20360a41b60448201526064015b60405180910390fd5b8383116100cc5760405162461bcd60e51b815260206004820152601c60248201527f46523a2075707065724c696d6974203c3d206c6f7765724c696d6974000000006044820152606401610074565b60809390935260a09190915260c0919091526001600160a01b031660e0526000805460ff60a01b1916600160a01b17905561019e565b600080546001600160a01b038381166001600160a01b0319831681178455604051919092169283917f8be0079c531659141344cd1fd0a4f28419497f9722a3daafe3b4186f6b6457e09190a35050565b6000806000806080858703121561016857600080fd5b84516020860151604087015191955093506001600160a01b038116811461018e57600080fd5b6060959095015193969295505050565b60805160a05160c05160e0516112486102156000396000818160d001528181610374015281816103fb015281816104c6015281816108a601526109f40152600081816101d90152818161092f015261096201526000818161025401526107ed01526000818161017c015261076301526112486000f3fe6080604052600436106100bc5760003560e01c8063679aefce116100745780638da5cb5b1161004e5780638da5cb5b1461021a578063b9b53da614610245578063f2fde38b1461027857600080fd5b8063679aefce146101ca5780636d88ff3e146101fd578063715018a61461020557600080fd5b80632f2770db116100a55780632f2770db146101565780632fbf983f1461016d57806346403f2b146101aa57600080fd5b806309a5cf16146100c157806322f3e2d41461011a575b600080fd5b3480156100cd57600080fd5b507f00000000000000000000000000000000000000000000000000000000000000005b60405173ffffffffffffffffffffffffffffffffffffffff90911681526020015b60405180910390f35b34801561012657600080fd5b5060005474010000000000000000000000000000000000000000900460ff165b6040519015158152602001610111565b34801561016257600080fd5b5061016b610298565b005b34801561017957600080fd5b507f00000000000000000000000000000000000000000000000000000000000000005b604051908152602001610111565b3480156101b657600080fd5b506101466101c53660046110bc565b610442565b3480156101d657600080fd5b507f000000000000000000000000000000000000000000000000000000000000000061019c565b61016b6106dc565b34801561021157600080fd5b5061016b610a59565b34801561022657600080fd5b5060005473ffffffffffffffffffffffffffffffffffffffff166100f0565b34801561025157600080fd5b507f000000000000000000000000000000000000000000000000000000000000000061019c565b34801561028457600080fd5b5061016b6102933660046110bc565b610ae6565b60005473ffffffffffffffffffffffffffffffffffffffff16331461031e576040517f08c379a000000000000000000000000000000000000000000000000000000000815260206004820181905260248201527f4f776e61626c653a2063616c6c6572206973206e6f7420746865206f776e657260448201526064015b60405180910390fd5b600080547fffffffffffffffffffffff00ffffffffffffffffffffffffffffffffffffffff1681556040517f70a082310000000000000000000000000000000000000000000000000000000081523060048201527f000000000000000000000000000000000000000000000000000000000000000073ffffffffffffffffffffffffffffffffffffffff16906370a0823190602401602060405180830381865afa1580156103d0573d6000803e3d6000fd5b505050506040513d601f19601f820116820180604052508101906103f491906110d9565b905061043f7f000000000000000000000000000000000000000000000000000000000000000061043960005473ffffffffffffffffffffffffffffffffffffffff1690565b83610bed565b50565b6000805473ffffffffffffffffffffffffffffffffffffffff1633146104c4576040517f08c379a000000000000000000000000000000000000000000000000000000000815260206004820181905260248201527f4f776e61626c653a2063616c6c6572206973206e6f7420746865206f776e65726044820152606401610315565b7f000000000000000000000000000000000000000000000000000000000000000073ffffffffffffffffffffffffffffffffffffffff168273ffffffffffffffffffffffffffffffffffffffff1603610579576040517f08c379a000000000000000000000000000000000000000000000000000000000815260206004820152601f60248201527f46523a204665726d696f6e2063616e206e6f742062652072656d6f7665642e006044820152606401610315565b8173ffffffffffffffffffffffffffffffffffffffff1663a9059cbb6105b460005473ffffffffffffffffffffffffffffffffffffffff1690565b6040517f70a0823100000000000000000000000000000000000000000000000000000000815230600482015273ffffffffffffffffffffffffffffffffffffffff8616906370a0823190602401602060405180830381865afa15801561061e573d6000803e3d6000fd5b505050506040513d601f19601f8201168201806040525081019061064291906110d9565b6040517fffffffff0000000000000000000000000000000000000000000000000000000060e085901b16815273ffffffffffffffffffffffffffffffffffffffff909216600483015260248201526044016020604051808303816000875af11580156106b2573d6000803e3d6000fd5b505050506040513d601f19601f820116820180604052508101906106d691906110f2565b92915050565b60005474010000000000000000000000000000000000000000900460ff16610760576040517f08c379a000000000000000000000000000000000000000000000000000000000815260206004820152601a60248201527f46523a20436f6e7472616374206973206e6f74206163746976650000000000006044820152606401610315565b347f00000000000000000000000000000000000000000000000000000000000000008110156107eb576040517f08c379a000000000000000000000000000000000000000000000000000000000815260206004820152601460248201527f46523a20496e73756666696369656e74204554480000000000000000000000006044820152606401610315565b7f0000000000000000000000000000000000000000000000000000000000000000811115610875576040517f08c379a000000000000000000000000000000000000000000000000000000000815260206004820152601b60248201527f46523a204554482065786365656473207570706572204c696d697400000000006044820152606401610315565b6040517f70a082310000000000000000000000000000000000000000000000000000000081523060048201526000907f000000000000000000000000000000000000000000000000000000000000000073ffffffffffffffffffffffffffffffffffffffff16906370a0823190602401602060405180830381865afa158015610902573d6000803e3d6000fd5b505050506040513d601f19601f8201168201806040525081019061092691906110d9565b905060006109547f000000000000000000000000000000000000000000000000000000000000000084611114565b9050808210156109c75750807f0000000000000000000000000000000000000000000000000000000000000000818161098f5761098f611152565b04925061099e33843403610c7f565b600080547fffffffffffffffffffffff00ffffffffffffffffffffffffffffffffffffffff1690555b6109ef6109e960005473ffffffffffffffffffffffffffffffffffffffff1690565b84610c7f565b610a197f000000000000000000000000000000000000000000000000000000000000000033610439565b604080518481526020810183905233917f1cbc5ab135991bd2b6a4b034a04aa2aa086dac1371cb9b16b8b5e2ed6b036bed910160405180910390a2505050565b60005473ffffffffffffffffffffffffffffffffffffffff163314610ada576040517f08c379a000000000000000000000000000000000000000000000000000000000815260206004820181905260248201527f4f776e61626c653a2063616c6c6572206973206e6f7420746865206f776e65726044820152606401610315565b610ae46000610d63565b565b60005473ffffffffffffffffffffffffffffffffffffffff163314610b67576040517f08c379a000000000000000000000000000000000000000000000000000000000815260206004820181905260248201527f4f776e61626c653a2063616c6c6572206973206e6f7420746865206f776e65726044820152606401610315565b73ffffffffffffffffffffffffffffffffffffffff8116610be4576040517f08c379a000000000000000000000000000000000000000000000000000000000815260206004820181905260248201527f4f776e61626c653a206e6577206f776e657220697320616464726573732830296044820152606401610315565b61043f81610d63565b6040805173ffffffffffffffffffffffffffffffffffffffff8416602482015260448082018490528251808303909101815260649091019091526020810180517bffffffffffffffffffffffffffffffffffffffffffffffffffffffff167fa9059cbb00000000000000000000000000000000000000000000000000000000179052610c7a908490610dd8565b505050565b6040805160008082526020820190925273ffffffffffffffffffffffffffffffffffffffff8416908390604051610cb691906111a5565b60006040518083038185875af1925050503d8060008114610cf3576040519150601f19603f3d011682016040523d82523d6000602084013e610cf8565b606091505b5050905080610c7a576040517f08c379a000000000000000000000000000000000000000000000000000000000815260206004820152601760248201527f46523a20455448207472616e73666572206661696c65640000000000000000006044820152606401610315565b6000805473ffffffffffffffffffffffffffffffffffffffff8381167fffffffffffffffffffffffff0000000000000000000000000000000000000000831681178455604051919092169283917f8be0079c531659141344cd1fd0a4f28419497f9722a3daafe3b4186f6b6457e09190a35050565b6000610e3a826040518060400160405280602081526020017f5361666545524332303a206c6f772d6c6576656c2063616c6c206661696c65648152508573ffffffffffffffffffffffffffffffffffffffff16610ebe9092919063ffffffff16565b805190915015610c7a5780806020019051810190610e5891906110f2565b610c7a576040517f08c379a000000000000000000000000000000000000000000000000000000000815260206004820152601c60248201527f5361666545524332303a2045524332302063616c6c206661696c6564000000006044820152606401610315565b6060610ecd8484600085610ed7565b90505b9392505050565b606082471015610f43576040517f08c379a000000000000000000000000000000000000000000000000000000000815260206004820181905260248201527f416464726573733a2062616c616e636520746f206c6f7720666f722063616c6c6044820152606401610315565b73ffffffffffffffffffffffffffffffffffffffff85163b610fc1576040517f08c379a000000000000000000000000000000000000000000000000000000000815260206004820152601d60248201527f416464726573733a2063616c6c20746f206e6f6e2d636f6e74726163740000006044820152606401610315565b6000808673ffffffffffffffffffffffffffffffffffffffff168587604051610fea91906111a5565b60006040518083038185875af1925050503d8060008114611027576040519150601f19603f3d011682016040523d82523d6000602084013e61102c565b606091505b509150915061103c828286611047565b979650505050505050565b60608315611056575081610ed0565b8251156110665782518084602001fd5b816040517f08c379a000000000000000000000000000000000000000000000000000000000815260040161031591906111c1565b73ffffffffffffffffffffffffffffffffffffffff8116811461043f57600080fd5b6000602082840312156110ce57600080fd5b8135610ed08161109a565b6000602082840312156110eb57600080fd5b5051919050565b60006020828403121561110457600080fd5b81518015158114610ed057600080fd5b80820281158282048414176106d6577f4e487b7100000000000000000000000000000000000000000000000000000000600052601160045260246000fd5b7f4e487b7100000000000000000000000000000000000000000000000000000000600052601260045260246000fd5b60005b8381101561119c578181015183820152602001611184565b50506000910152565b600082516111b7818460208701611181565b9190910192915050565b60208152600082518060208401526111e0816040850160208701611181565b601f017fffffffffffffffffffffffffffffffffffffffffffffffffffffffffffffffe016919091016040019291505056fea26469706673582212202efe0b88c2ab207b16987a5be70d16de1e38f9948b775b9aa5dd13c7e1caa88f64736f6c63430008110033",
  "devdoc": {
    "kind": "dev",
    "methods": {
      "owner()": {
        "returns": {
          "_0": "The current owner."
        }
      },
      "renounceOwnership()": {
        "details": "Sets the zero address as the new contract owner."
      },
      "transferOwnership(address)": {
        "params": {
          "newOwner": "The new owner of the contract."
        }
      }
    },
    "version": 1
  },
  "userdoc": {
    "events": {
      "OwnershipTransferred(address,address)": {
        "notice": "Emitted when ownership is moved from one address to another."
      }
    },
    "kind": "user",
    "methods": {
      "owner()": {
        "notice": "Returns the current owner."
      },
      "renounceOwnership()": {
        "notice": "Leaves the contract without an owner. It will not be possible to call {onlyOwner} functions anymore. NOTE: Renouncing ownership will leave the contract without an owner, thereby removing any functionality that is only available to the owner. Emits an [`OwnershipTransferred`](#ownershiptransferred) event indicating the renounced ownership. Requirements: - Can only be called by the current owner. "
      },
      "transferOwnership(address)": {
        "notice": "Transfers ownership of the contract to a new address. Emits an [`OwnershipTransferred`](#ownershiptransferred) event indicating the transfered ownership. Requirements: - Can only be called by the current owner."
      }
    },
    "version": 1
  },
  "storageLayout": {
    "storage": [
      {
        "astId": 10,
        "contract": "contracts/FermionReactor.sol:FermionReactor",
        "label": "_owner",
        "offset": 0,
        "slot": "0",
        "type": "t_address"
      },
      {
        "astId": 7205,
        "contract": "contracts/FermionReactor.sol:FermionReactor",
        "label": "_active",
        "offset": 20,
        "slot": "0",
        "type": "t_bool"
      }
    ],
    "types": {
      "t_address": {
        "encoding": "inplace",
        "label": "address",
        "numberOfBytes": "20"
      },
      "t_bool": {
        "encoding": "inplace",
        "label": "bool",
        "numberOfBytes": "1"
      }
    }
  }
}