{
  "address": "0x515351DaC5D02Cb7AA4363cb4821bA855fb9BBa4",
  "abi": [
    {
      "anonymous": false,
      "inputs": [
        {
          "indexed": true,
          "internalType": "address",
          "name": "previousOwner",
          "type": "address"
        },
        {
          "indexed": true,
          "internalType": "address",
          "name": "newOwner",
          "type": "address"
        }
      ],
      "name": "OwnershipTransferred",
      "type": "event"
    },
    {
      "inputs": [
        {
          "internalType": "uint256",
          "name": "pid",
          "type": "uint256"
        }
      ],
      "name": "deletePoolInfo",
      "outputs": [],
      "stateMutability": "nonpayable",
      "type": "function"
    },
    {
      "inputs": [
        {
          "internalType": "uint256",
          "name": "pid",
          "type": "uint256"
        }
      ],
      "name": "getPoolInfo",
      "outputs": [
        {
          "components": [
            {
              "internalType": "contract IERC20",
              "name": "lpToken",
              "type": "address"
            },
            {
              "internalType": "uint256",
              "name": "allocPoint",
              "type": "uint256"
            },
            {
              "internalType": "uint256",
              "name": "lastRewardBlock",
              "type": "uint256"
            },
            {
              "internalType": "uint256",
              "name": "accFermionPerShare",
              "type": "uint256"
            },
            {
              "internalType": "uint256",
              "name": "initialLock",
              "type": "uint256"
            }
          ],
          "internalType": "struct PoolInfo",
          "name": "",
          "type": "tuple"
        }
      ],
      "stateMutability": "view",
      "type": "function"
    },
    {
      "inputs": [],
      "name": "getPoolLength",
      "outputs": [
        {
          "internalType": "uint256",
          "name": "",
          "type": "uint256"
        }
      ],
      "stateMutability": "view",
      "type": "function"
    },
    {
      "inputs": [
        {
          "internalType": "uint256",
          "name": "pid",
          "type": "uint256"
        },
        {
          "internalType": "address",
          "name": "user",
          "type": "address"
        }
      ],
      "name": "getUserInfo",
      "outputs": [
        {
          "components": [
            {
              "internalType": "uint256",
              "name": "amount",
              "type": "uint256"
            },
            {
              "internalType": "int256",
              "name": "rewardDebt",
              "type": "int256"
            }
          ],
          "internalType": "struct UserInfo",
          "name": "",
          "type": "tuple"
        }
      ],
      "stateMutability": "view",
      "type": "function"
    },
    {
      "inputs": [
        {
          "components": [
            {
              "internalType": "contract IERC20",
              "name": "lpToken",
              "type": "address"
            },
            {
              "internalType": "uint256",
              "name": "allocPoint",
              "type": "uint256"
            },
            {
              "internalType": "uint256",
              "name": "lastRewardBlock",
              "type": "uint256"
            },
            {
              "internalType": "uint256",
              "name": "accFermionPerShare",
              "type": "uint256"
            },
            {
              "internalType": "uint256",
              "name": "initialLock",
              "type": "uint256"
            }
          ],
          "internalType": "struct PoolInfo",
          "name": "pi",
          "type": "tuple"
        }
      ],
      "name": "newPoolInfo",
      "outputs": [],
      "stateMutability": "nonpayable",
      "type": "function"
    },
    {
      "inputs": [],
      "name": "owner",
      "outputs": [
        {
          "internalType": "address",
          "name": "",
          "type": "address"
        }
      ],
      "stateMutability": "view",
      "type": "function"
    },
    {
      "inputs": [],
      "name": "renounceOwnership",
      "outputs": [],
      "stateMutability": "nonpayable",
      "type": "function"
    },
    {
      "inputs": [
        {
          "internalType": "address",
          "name": "newOwner",
          "type": "address"
        }
      ],
      "name": "transferOwnership",
      "outputs": [],
      "stateMutability": "nonpayable",
      "type": "function"
    },
    {
      "inputs": [
        {
          "internalType": "uint256",
          "name": "pid",
          "type": "uint256"
        },
        {
          "components": [
            {
              "internalType": "contract IERC20",
              "name": "lpToken",
              "type": "address"
            },
            {
              "internalType": "uint256",
              "name": "allocPoint",
              "type": "uint256"
            },
            {
              "internalType": "uint256",
              "name": "lastRewardBlock",
              "type": "uint256"
            },
            {
              "internalType": "uint256",
              "name": "accFermionPerShare",
              "type": "uint256"
            },
            {
              "internalType": "uint256",
              "name": "initialLock",
              "type": "uint256"
            }
          ],
          "internalType": "struct PoolInfo",
          "name": "pi",
          "type": "tuple"
        }
      ],
      "name": "updatePoolInfo",
      "outputs": [],
      "stateMutability": "nonpayable",
      "type": "function"
    },
    {
      "inputs": [
        {
          "internalType": "uint256",
          "name": "pid",
          "type": "uint256"
        },
        {
          "internalType": "address",
          "name": "user",
          "type": "address"
        },
        {
          "components": [
            {
              "internalType": "uint256",
              "name": "amount",
              "type": "uint256"
            },
            {
              "internalType": "int256",
              "name": "rewardDebt",
              "type": "int256"
            }
          ],
          "internalType": "struct UserInfo",
          "name": "ui",
          "type": "tuple"
        }
      ],
      "name": "updateUserInfo",
      "outputs": [],
      "stateMutability": "nonpayable",
      "type": "function"
    }
  ],
  "transactionHash": "0xa6b546a9473b5f3bd832bbff87618ec769aabb9684ef5a6039aa7b5ee8bc3d5b",
  "args": [],
  "numDeployments": 2,
  "solcInputHash": "826e7e16b5d1f5f6401540a40e57637d",
  "bytecode": "0x608060405234801561001057600080fd5b5061001a3361001f565b61006f565b600080546001600160a01b038381166001600160a01b0319831681178455604051919092169283917f8be0079c531659141344cd1fd0a4f28419497f9722a3daafe3b4186f6b6457e09190a35050565b610e0e8061007e6000396000f3fe608060405234801561001057600080fd5b50600436106100be5760003560e01c806391f317e411610076578063b3944d521161005b578063b3944d52146101cc578063de781094146101dd578063f2fde38b146101f057600080fd5b806391f317e4146101a657806393bb3d4f146101b957600080fd5b80633224e6c9116100a75780633224e6c914610161578063715018a6146101765780638da5cb5b1461017e57600080fd5b80631069f3b5146100c35780632f380b35146100f6575b600080fd5b6100d66100d1366004610b28565b610203565b604080518251815260209283015192810192909252015b60405180910390f35b610109610104366004610b58565b61025c565b6040516100ed9190600060a08201905073ffffffffffffffffffffffffffffffffffffffff83511682526020830151602083015260408301516040830152606083015160608301526080830151608083015292915050565b61017461016f366004610b71565b61031e565b005b6101746103e2565b60005460405173ffffffffffffffffffffffffffffffffffffffff90911681526020016100ed565b6101746101b4366004610cd3565b6103ec565b6101746101c7366004610d00565b610504565b6002546040519081526020016100ed565b6101746101eb366004610b58565b6106aa565b6101746101fe366004610d23565b610900565b60408051808201825260008082526020918201819052848152600180835283822073ffffffffffffffffffffffffffffffffffffffff861683528352908390208351808501909452805484520154908201525b92915050565b6102a46040518060a00160405280600073ffffffffffffffffffffffffffffffffffffffff168152602001600081526020016000815260200160008152602001600081525090565b600282815481106102b7576102b7610d40565b60009182526020918290206040805160a0810182526005909302909101805473ffffffffffffffffffffffffffffffffffffffff16835260018101549383019390935260028301549082015260038201546060820152600490910154608082015292915050565b60005473ffffffffffffffffffffffffffffffffffffffff1633146103a4576040517f08c379a000000000000000000000000000000000000000000000000000000000815260206004820181905260248201527f4f776e61626c653a2063616c6c6572206973206e6f7420746865206f776e657260448201526064015b60405180910390fd5b600092835260016020818152604080862073ffffffffffffffffffffffffffffffffffffffff90951686529381529290932081518155910151910155565b6103ea610a0a565b565b60005473ffffffffffffffffffffffffffffffffffffffff16331461046d576040517f08c379a000000000000000000000000000000000000000000000000000000000815260206004820181905260248201527f4f776e61626c653a2063616c6c6572206973206e6f7420746865206f776e6572604482015260640161039b565b806002838154811061048157610481610d40565b600091825260209182902083516005929092020180547fffffffffffffffffffffffff00000000000000000000000000000000000000001673ffffffffffffffffffffffffffffffffffffffff90921691909117815590820151600182015560408201516002820155606082015160038201556080909101516004909101555050565b60005473ffffffffffffffffffffffffffffffffffffffff163314610585576040517f08c379a000000000000000000000000000000000000000000000000000000000815260206004820181905260248201527f4f776e61626c653a2063616c6c6572206973206e6f7420746865206f776e6572604482015260640161039b565b6002805460018101825560009190915281517f405787fa12a823e0f2b7631cc41b3ba8828b3321ca811111fa75cd3aa3bb5ace600590920291820180547fffffffffffffffffffffffff00000000000000000000000000000000000000001673ffffffffffffffffffffffffffffffffffffffff90921691909117905560208201517f405787fa12a823e0f2b7631cc41b3ba8828b3321ca811111fa75cd3aa3bb5acf82015560408201517f405787fa12a823e0f2b7631cc41b3ba8828b3321ca811111fa75cd3aa3bb5ad082015560608201517f405787fa12a823e0f2b7631cc41b3ba8828b3321ca811111fa75cd3aa3bb5ad18201556080909101517f405787fa12a823e0f2b7631cc41b3ba8828b3321ca811111fa75cd3aa3bb5ad290910155565b60005473ffffffffffffffffffffffffffffffffffffffff16331461072b576040517f08c379a000000000000000000000000000000000000000000000000000000000815260206004820181905260248201527f4f776e61626c653a2063616c6c6572206973206e6f7420746865206f776e6572604482015260640161039b565b6002818154811061073e5761073e610d40565b9060005260206000209060050201600101546000146107b9576040517f08c379a000000000000000000000000000000000000000000000000000000000815260206004820152601460248201527f4d4647533a20506f6f6c20697320616374697665000000000000000000000000604482015260640161039b565b600280546107c990600190610d6f565b815481106107d9576107d9610d40565b9060005260206000209060050201600282815481106107fa576107fa610d40565b60009182526020909120825460059092020180547fffffffffffffffffffffffff00000000000000000000000000000000000000001673ffffffffffffffffffffffffffffffffffffffff909216919091178155600180830154908201556002808301548183015560038084015490830155600492830154929091019190915580548061088957610889610da9565b60008281526020812060057fffffffffffffffffffffffffffffffffffffffffffffffffffffffffffffffff9093019283020180547fffffffffffffffffffffffff000000000000000000000000000000000000000016815560018101829055600281018290556003810182905560040155905550565b60005473ffffffffffffffffffffffffffffffffffffffff163314610981576040517f08c379a000000000000000000000000000000000000000000000000000000000815260206004820181905260248201527f4f776e61626c653a2063616c6c6572206973206e6f7420746865206f776e6572604482015260640161039b565b73ffffffffffffffffffffffffffffffffffffffff81166109fe576040517f08c379a000000000000000000000000000000000000000000000000000000000815260206004820181905260248201527f4f776e61626c653a206e6577206f776e65722069732061646472657373283029604482015260640161039b565b610a0781610a91565b50565b60005473ffffffffffffffffffffffffffffffffffffffff163314610a8b576040517f08c379a000000000000000000000000000000000000000000000000000000000815260206004820181905260248201527f4f776e61626c653a2063616c6c6572206973206e6f7420746865206f776e6572604482015260640161039b565b6103ea60005b6000805473ffffffffffffffffffffffffffffffffffffffff8381167fffffffffffffffffffffffff0000000000000000000000000000000000000000831681178455604051919092169283917f8be0079c531659141344cd1fd0a4f28419497f9722a3daafe3b4186f6b6457e09190a35050565b73ffffffffffffffffffffffffffffffffffffffff81168114610a0757600080fd5b60008060408385031215610b3b57600080fd5b823591506020830135610b4d81610b06565b809150509250929050565b600060208284031215610b6a57600080fd5b5035919050565b60008060008385036080811215610b8757600080fd5b843593506020850135610b9981610b06565b925060407fffffffffffffffffffffffffffffffffffffffffffffffffffffffffffffffc082011215610bcb57600080fd5b506040516040810181811067ffffffffffffffff82111715610c16577f4e487b7100000000000000000000000000000000000000000000000000000000600052604160045260246000fd5b604090815285013581526060909401356020850152509093909250565b600060a08284031215610c4557600080fd5b60405160a0810181811067ffffffffffffffff82111715610c8f577f4e487b7100000000000000000000000000000000000000000000000000000000600052604160045260246000fd5b6040529050808235610ca081610b06565b80825250602083013560208201526040830135604082015260608301356060820152608083013560808201525092915050565b60008060c08385031215610ce657600080fd5b82359150610cf78460208501610c33565b90509250929050565b600060a08284031215610d1257600080fd5b610d1c8383610c33565b9392505050565b600060208284031215610d3557600080fd5b8135610d1c81610b06565b7f4e487b7100000000000000000000000000000000000000000000000000000000600052603260045260246000fd5b81810381811115610256577f4e487b7100000000000000000000000000000000000000000000000000000000600052601160045260246000fd5b7f4e487b7100000000000000000000000000000000000000000000000000000000600052603160045260246000fdfea264697066735822122085af7d8e90840182707d20d2604311dde29af723774efa4aa7778b66b884066064736f6c63430008110033",
  "devdoc": {
    "kind": "dev",
    "methods": {
      "transferOwnership(address)": {
        "params": {
          "newOwner": "The new owner of the contract."
        }
      }
    },
    "version": 1
  },
  "userdoc": {
    "events": {
      "OwnershipTransferred(address,address)": {
        "notice": "Emitted when ownership is moved from one address to another."
      }
    },
    "kind": "user",
    "methods": {
      "owner()": {
        "notice": "Returns the address of the current owner."
      },
      "renounceOwnership()": {
        "notice": "Leaves the contract without owner. Can only be called by the current owner. This is a dangerous call be aware of the consequences"
      },
      "transferOwnership(address)": {
        "notice": "Transfers ownership of the contract to a new address. Emits an [`OwnershipTransferred`](#ownershiptransferred) event indicating the transfered ownership. Requirements: - Can only be called by the current owner."
      }
    },
    "version": 1
  },
  "storageLayout": {
    "storage": [
      {
        "astId": 10,
        "contract": "contracts/MagneticFieldGeneratorStore.sol:MagneticFieldGeneratorStore",
        "label": "_owner",
        "offset": 0,
        "slot": "0",
        "type": "t_address"
      },
      {
        "astId": 9087,
        "contract": "contracts/MagneticFieldGeneratorStore.sol:MagneticFieldGeneratorStore",
        "label": "_userInfo",
        "offset": 0,
        "slot": "1",
        "type": "t_mapping(t_uint256,t_mapping(t_address,t_struct(UserInfo)10675_storage))"
      },
      {
        "astId": 9091,
        "contract": "contracts/MagneticFieldGeneratorStore.sol:MagneticFieldGeneratorStore",
        "label": "_poolInfo",
        "offset": 0,
        "slot": "2",
        "type": "t_array(t_struct(PoolInfo)10668_storage)dyn_storage"
      }
    ],
    "types": {
      "t_address": {
        "encoding": "inplace",
        "label": "address",
        "numberOfBytes": "20"
      },
      "t_array(t_struct(PoolInfo)10668_storage)dyn_storage": {
        "base": "t_struct(PoolInfo)10668_storage",
        "encoding": "dynamic_array",
        "label": "struct PoolInfo[]",
        "numberOfBytes": "32"
      },
      "t_contract(IERC20)209": {
        "encoding": "inplace",
        "label": "contract IERC20",
        "numberOfBytes": "20"
      },
      "t_int256": {
        "encoding": "inplace",
        "label": "int256",
        "numberOfBytes": "32"
      },
      "t_mapping(t_address,t_struct(UserInfo)10675_storage)": {
        "encoding": "mapping",
        "key": "t_address",
        "label": "mapping(address => struct UserInfo)",
        "numberOfBytes": "32",
        "value": "t_struct(UserInfo)10675_storage"
      },
      "t_mapping(t_uint256,t_mapping(t_address,t_struct(UserInfo)10675_storage))": {
        "encoding": "mapping",
        "key": "t_uint256",
        "label": "mapping(uint256 => mapping(address => struct UserInfo))",
        "numberOfBytes": "32",
        "value": "t_mapping(t_address,t_struct(UserInfo)10675_storage)"
      },
      "t_struct(PoolInfo)10668_storage": {
        "encoding": "inplace",
        "label": "struct PoolInfo",
        "members": [
          {
            "astId": 10659,
            "contract": "contracts/MagneticFieldGeneratorStore.sol:MagneticFieldGeneratorStore",
            "label": "lpToken",
            "offset": 0,
            "slot": "0",
            "type": "t_contract(IERC20)209"
          },
          {
            "astId": 10661,
            "contract": "contracts/MagneticFieldGeneratorStore.sol:MagneticFieldGeneratorStore",
            "label": "allocPoint",
            "offset": 0,
            "slot": "1",
            "type": "t_uint256"
          },
          {
            "astId": 10663,
            "contract": "contracts/MagneticFieldGeneratorStore.sol:MagneticFieldGeneratorStore",
            "label": "lastRewardBlock",
            "offset": 0,
            "slot": "2",
            "type": "t_uint256"
          },
          {
            "astId": 10665,
            "contract": "contracts/MagneticFieldGeneratorStore.sol:MagneticFieldGeneratorStore",
            "label": "accFermionPerShare",
            "offset": 0,
            "slot": "3",
            "type": "t_uint256"
          },
          {
            "astId": 10667,
            "contract": "contracts/MagneticFieldGeneratorStore.sol:MagneticFieldGeneratorStore",
            "label": "initialLock",
            "offset": 0,
            "slot": "4",
            "type": "t_uint256"
          }
        ],
        "numberOfBytes": "160"
      },
      "t_struct(UserInfo)10675_storage": {
        "encoding": "inplace",
        "label": "struct UserInfo",
        "members": [
          {
            "astId": 10672,
            "contract": "contracts/MagneticFieldGeneratorStore.sol:MagneticFieldGeneratorStore",
            "label": "amount",
            "offset": 0,
            "slot": "0",
            "type": "t_uint256"
          },
          {
            "astId": 10674,
            "contract": "contracts/MagneticFieldGeneratorStore.sol:MagneticFieldGeneratorStore",
            "label": "rewardDebt",
            "offset": 0,
            "slot": "1",
            "type": "t_int256"
          }
        ],
        "numberOfBytes": "64"
      },
      "t_uint256": {
        "encoding": "inplace",
        "label": "uint256",
        "numberOfBytes": "32"
      }
    }
  }
}