{
  "address": "0x90C2F531c6600DBC6FbfAc9aA8839c1dA61557d9",
  "abi": [
    {
      "inputs": [
        {
          "internalType": "contract IFermion",
          "name": "fermion",
          "type": "address"
        },
        {
          "internalType": "uint256",
          "name": "fermionPerBlock",
          "type": "uint256"
        },
        {
          "internalType": "uint256",
          "name": "startBlock",
          "type": "uint256"
        }
      ],
      "stateMutability": "nonpayable",
      "type": "constructor"
    },
    {
      "anonymous": false,
      "inputs": [
        {
          "indexed": true,
          "internalType": "address",
          "name": "user",
          "type": "address"
        },
        {
          "indexed": true,
          "internalType": "uint256",
          "name": "pid",
          "type": "uint256"
        },
        {
          "indexed": false,
          "internalType": "uint256",
          "name": "amount",
          "type": "uint256"
        },
        {
          "indexed": true,
          "internalType": "address",
          "name": "to",
          "type": "address"
        }
      ],
      "name": "Deposit",
      "type": "event"
    },
    {
      "anonymous": false,
      "inputs": [
        {
          "indexed": true,
          "internalType": "address",
          "name": "user",
          "type": "address"
        },
        {
          "indexed": true,
          "internalType": "uint256",
          "name": "pid",
          "type": "uint256"
        },
        {
          "indexed": false,
          "internalType": "uint256",
          "name": "amount",
          "type": "uint256"
        },
        {
          "indexed": true,
          "internalType": "address",
          "name": "to",
          "type": "address"
        }
      ],
      "name": "EmergencyWithdraw",
      "type": "event"
    },
    {
      "anonymous": false,
      "inputs": [
        {
          "indexed": true,
          "internalType": "address",
          "name": "user",
          "type": "address"
        },
        {
          "indexed": true,
          "internalType": "uint256",
          "name": "pid",
          "type": "uint256"
        },
        {
          "indexed": false,
          "internalType": "uint256",
          "name": "amount",
          "type": "uint256"
        },
        {
          "indexed": true,
          "internalType": "address",
          "name": "to",
          "type": "address"
        }
      ],
      "name": "Harvest",
      "type": "event"
    },
    {
      "anonymous": false,
      "inputs": [
        {
          "indexed": true,
          "internalType": "uint256",
          "name": "pid",
          "type": "uint256"
        },
        {
          "indexed": false,
          "internalType": "uint256",
          "name": "allocPoint",
          "type": "uint256"
        },
        {
          "indexed": true,
          "internalType": "contract IERC20",
          "name": "lpToken",
          "type": "address"
        }
      ],
      "name": "LogPoolAddition",
      "type": "event"
    },
    {
      "anonymous": false,
      "inputs": [
        {
          "indexed": true,
          "internalType": "uint256",
          "name": "pid",
          "type": "uint256"
        },
        {
          "indexed": false,
          "internalType": "uint256",
          "name": "allocPoint",
          "type": "uint256"
        }
      ],
      "name": "LogSetPool",
      "type": "event"
    },
    {
      "anonymous": false,
      "inputs": [
        {
          "indexed": true,
          "internalType": "uint256",
          "name": "pid",
          "type": "uint256"
        },
        {
          "indexed": false,
          "internalType": "uint256",
          "name": "lastRewardBlock",
          "type": "uint256"
        },
        {
          "indexed": false,
          "internalType": "uint256",
          "name": "lpSupply",
          "type": "uint256"
        },
        {
          "indexed": false,
          "internalType": "uint256",
          "name": "accFermionPerShare",
          "type": "uint256"
        }
      ],
      "name": "LogUpdatePool",
      "type": "event"
    },
    {
      "anonymous": false,
      "inputs": [
        {
          "indexed": true,
          "internalType": "address",
          "name": "previousOwner",
          "type": "address"
        },
        {
          "indexed": true,
          "internalType": "address",
          "name": "newOwner",
          "type": "address"
        }
      ],
      "name": "OwnershipTransferred",
      "type": "event"
    },
    {
      "anonymous": false,
      "inputs": [
        {
          "indexed": true,
          "internalType": "address",
          "name": "user",
          "type": "address"
        },
        {
          "indexed": true,
          "internalType": "uint256",
          "name": "pid",
          "type": "uint256"
        },
        {
          "indexed": false,
          "internalType": "uint256",
          "name": "amount",
          "type": "uint256"
        },
        {
          "indexed": true,
          "internalType": "address",
          "name": "to",
          "type": "address"
        }
      ],
      "name": "Withdraw",
      "type": "event"
    },
    {
      "inputs": [
        {
          "internalType": "uint256",
          "name": "allocPoint",
          "type": "uint256"
        },
        {
          "internalType": "contract IERC20",
          "name": "lpToken",
          "type": "address"
        },
        {
          "internalType": "uint256",
          "name": "lockPeriod",
          "type": "uint256"
        }
      ],
      "name": "add",
      "outputs": [],
      "stateMutability": "nonpayable",
      "type": "function"
    },
    {
      "inputs": [
        {
          "internalType": "uint256",
          "name": "pid",
          "type": "uint256"
        },
        {
          "internalType": "uint256",
          "name": "amount",
          "type": "uint256"
        },
        {
          "internalType": "address",
          "name": "to",
          "type": "address"
        }
      ],
      "name": "deposit",
      "outputs": [],
      "stateMutability": "nonpayable",
      "type": "function"
    },
    {
      "inputs": [
        {
          "internalType": "uint256",
          "name": "pid",
          "type": "uint256"
        }
      ],
      "name": "disablePool",
      "outputs": [],
      "stateMutability": "nonpayable",
      "type": "function"
    },
    {
      "inputs": [
        {
          "internalType": "uint256",
          "name": "pid",
          "type": "uint256"
        },
        {
          "internalType": "address",
          "name": "to",
          "type": "address"
        }
      ],
      "name": "emergencyWithdraw",
      "outputs": [],
      "stateMutability": "nonpayable",
      "type": "function"
    },
    {
      "inputs": [],
      "name": "getFermionContract",
      "outputs": [
        {
          "internalType": "contract IFermion",
          "name": "",
          "type": "address"
        }
      ],
      "stateMutability": "view",
      "type": "function"
    },
    {
      "inputs": [],
      "name": "getFermionPerBlock",
      "outputs": [
        {
          "internalType": "uint256",
          "name": "",
          "type": "uint256"
        }
      ],
      "stateMutability": "view",
      "type": "function"
    },
    {
      "inputs": [],
      "name": "getStartBlock",
      "outputs": [
        {
          "internalType": "uint256",
          "name": "",
          "type": "uint256"
        }
      ],
      "stateMutability": "view",
      "type": "function"
    },
    {
      "inputs": [
        {
          "internalType": "contract IMagneticFieldGenerator",
          "name": "suc",
          "type": "address"
        }
      ],
      "name": "handOverToSuccessor",
      "outputs": [],
      "stateMutability": "nonpayable",
      "type": "function"
    },
    {
      "inputs": [
        {
          "internalType": "uint256",
          "name": "pid",
          "type": "uint256"
        },
        {
          "internalType": "address",
          "name": "to",
          "type": "address"
        }
      ],
      "name": "harvest",
      "outputs": [],
      "stateMutability": "nonpayable",
      "type": "function"
    },
    {
      "inputs": [],
      "name": "massUpdatePools",
      "outputs": [],
      "stateMutability": "nonpayable",
      "type": "function"
    },
    {
      "inputs": [
        {
          "internalType": "uint256",
          "name": "pid",
          "type": "uint256"
        }
      ],
      "name": "migrate",
      "outputs": [],
      "stateMutability": "nonpayable",
      "type": "function"
    },
    {
      "inputs": [],
      "name": "migrator",
      "outputs": [
        {
          "internalType": "contract IMigratorDevice",
          "name": "",
          "type": "address"
        }
      ],
      "stateMutability": "view",
      "type": "function"
    },
    {
      "inputs": [],
      "name": "owner",
      "outputs": [
        {
          "internalType": "address",
          "name": "",
          "type": "address"
        }
      ],
      "stateMutability": "view",
      "type": "function"
    },
    {
      "inputs": [
        {
          "internalType": "uint256",
          "name": "pid",
          "type": "uint256"
        },
        {
          "internalType": "address",
          "name": "user",
          "type": "address"
        }
      ],
      "name": "pendingFermion",
      "outputs": [
        {
          "internalType": "uint256",
          "name": "",
          "type": "uint256"
        }
      ],
      "stateMutability": "view",
      "type": "function"
    },
    {
      "inputs": [
        {
          "internalType": "uint256",
          "name": "pid",
          "type": "uint256"
        }
      ],
      "name": "poolInfo",
      "outputs": [
        {
          "components": [
            {
              "internalType": "contract IERC20",
              "name": "lpToken",
              "type": "address"
            },
            {
              "internalType": "uint256",
              "name": "allocPoint",
              "type": "uint256"
            },
            {
              "internalType": "uint256",
              "name": "lastRewardBlock",
              "type": "uint256"
            },
            {
              "internalType": "uint256",
              "name": "accFermionPerShare",
              "type": "uint256"
            },
            {
              "internalType": "uint256",
              "name": "initialLock",
              "type": "uint256"
            }
          ],
          "internalType": "struct PoolInfo",
          "name": "",
          "type": "tuple"
        }
      ],
      "stateMutability": "view",
      "type": "function"
    },
    {
      "inputs": [],
      "name": "poolLength",
      "outputs": [
        {
          "internalType": "uint256",
          "name": "",
          "type": "uint256"
        }
      ],
      "stateMutability": "view",
      "type": "function"
    },
    {
      "inputs": [],
      "name": "renounceOwnership",
      "outputs": [],
      "stateMutability": "nonpayable",
      "type": "function"
    },
    {
      "inputs": [
        {
          "internalType": "uint256",
          "name": "pid",
          "type": "uint256"
        },
        {
          "internalType": "uint256",
          "name": "allocPoint",
          "type": "uint256"
        }
      ],
      "name": "set",
      "outputs": [],
      "stateMutability": "nonpayable",
      "type": "function"
    },
    {
      "inputs": [
        {
          "internalType": "uint256",
          "name": "fermionPerBlock",
          "type": "uint256"
        }
      ],
      "name": "setFermionPerBlock",
      "outputs": [],
      "stateMutability": "nonpayable",
      "type": "function"
    },
    {
      "inputs": [
        {
          "internalType": "contract IMigratorDevice",
          "name": "migratorContract",
          "type": "address"
        }
      ],
      "name": "setMigrator",
      "outputs": [],
      "stateMutability": "nonpayable",
      "type": "function"
    },
    {
      "inputs": [
        {
          "internalType": "contract IMagneticFieldGeneratorStore",
          "name": "storeContract",
          "type": "address"
        }
      ],
      "name": "setStore",
      "outputs": [],
      "stateMutability": "nonpayable",
      "type": "function"
    },
    {
      "inputs": [],
      "name": "successor",
      "outputs": [
        {
          "internalType": "contract IMagneticFieldGenerator",
          "name": "",
          "type": "address"
        }
      ],
      "stateMutability": "view",
      "type": "function"
    },
    {
      "inputs": [],
      "name": "totalAllocPoint",
      "outputs": [
        {
          "internalType": "uint256",
          "name": "",
          "type": "uint256"
        }
      ],
      "stateMutability": "view",
      "type": "function"
    },
    {
      "inputs": [
        {
          "internalType": "address",
          "name": "newOwner",
          "type": "address"
        }
      ],
      "name": "transferOwnership",
      "outputs": [],
      "stateMutability": "nonpayable",
      "type": "function"
    },
    {
      "inputs": [
        {
          "internalType": "uint256",
          "name": "pid",
          "type": "uint256"
        }
      ],
      "name": "updatePool",
      "outputs": [
        {
          "components": [
            {
              "internalType": "contract IERC20",
              "name": "lpToken",
              "type": "address"
            },
            {
              "internalType": "uint256",
              "name": "allocPoint",
              "type": "uint256"
            },
            {
              "internalType": "uint256",
              "name": "lastRewardBlock",
              "type": "uint256"
            },
            {
              "internalType": "uint256",
              "name": "accFermionPerShare",
              "type": "uint256"
            },
            {
              "internalType": "uint256",
              "name": "initialLock",
              "type": "uint256"
            }
          ],
          "internalType": "struct PoolInfo",
          "name": "",
          "type": "tuple"
        }
      ],
      "stateMutability": "nonpayable",
      "type": "function"
    },
    {
      "inputs": [
        {
          "internalType": "uint256",
          "name": "pid",
          "type": "uint256"
        },
        {
          "internalType": "address",
          "name": "user",
          "type": "address"
        }
      ],
      "name": "userInfo",
      "outputs": [
        {
          "components": [
            {
              "internalType": "uint256",
              "name": "amount",
              "type": "uint256"
            },
            {
              "internalType": "int256",
              "name": "rewardDebt",
              "type": "int256"
            }
          ],
          "internalType": "struct UserInfo",
          "name": "",
          "type": "tuple"
        }
      ],
      "stateMutability": "view",
      "type": "function"
    },
    {
      "inputs": [
        {
          "internalType": "uint256",
          "name": "pid",
          "type": "uint256"
        },
        {
          "internalType": "uint256",
          "name": "amount",
          "type": "uint256"
        },
        {
          "internalType": "address",
          "name": "to",
          "type": "address"
        }
      ],
      "name": "withdraw",
      "outputs": [],
      "stateMutability": "nonpayable",
      "type": "function"
    },
    {
      "inputs": [
        {
          "internalType": "uint256",
          "name": "pid",
          "type": "uint256"
        },
        {
          "internalType": "uint256",
          "name": "amount",
          "type": "uint256"
        },
        {
          "internalType": "address",
          "name": "to",
          "type": "address"
        }
      ],
      "name": "withdrawAndHarvest",
      "outputs": [],
      "stateMutability": "nonpayable",
      "type": "function"
    }
  ],
  "transactionHash": "0xbba29554bc4afb006d2346aeeee4f25d56688e26f817e8d590f09b90cf75c750",
  "args": [
    "0x7d5e85d281CE6E93C6D17b4887e58242A23703c3",
    "60000000000000000000",
    "0"
  ],
  "numDeployments": 1,
  "solcInputHash": "f7d2eb4c9de796a477ee3c103ef69e6d",
  "bytecode": "0x60c06040523480156200001157600080fd5b5060405162003c6a38038062003c6a8339810160408190526200003491620000a9565b6200003f3362000059565b6001600160a01b0390921660a052600155608052620000ee565b600080546001600160a01b038381166001600160a01b0319831681178455604051919092169283917f8be0079c531659141344cd1fd0a4f28419497f9722a3daafe3b4186f6b6457e09190a35050565b600080600060608486031215620000bf57600080fd5b83516001600160a01b0381168114620000d757600080fd5b602085015160409095015190969495509392505050565b60805160a051613b2562000145600039600081816103f301528181610af801528181610b800152818161112401528181611e5a0152612a250152600081816103810152818161258101526125a80152613b256000f3fe608060405234801561001057600080fd5b50600436106101c45760003560e01c80636ff968c3116100f9578063a64e121811610097578063d1abb90711610071578063d1abb907146103de578063d5b7076c146103f1578063f09ba87114610417578063f2fde38b1461042a57600080fd5b8063a64e1218146103a5578063b9955e39146103b8578063be867ebe146103cb57600080fd5b80638da5cb5b116100d35780638da5cb5b1461032e5780638dbdbe6d1461034c57806393f1a40b1461035f578063a5f18c011461037f57600080fd5b80636ff968c3146102c9578063715018a6146103085780637cd07e471461031057600080fd5b806318fccc76116101665780632f940c70116101405780632f940c7014610288578063454b06081461029b57806351eb05a6146102ae578063630b5ba1146102c157600080fd5b806318fccc761461024f5780631ab06ee51461026257806323cf31181461027557600080fd5b80631453d91f116101a25780631453d91f1461020c5780631526fe271461021f57806317caf6f11461023f578063181dc4391461024757600080fd5b8063081e3eda146101c9578063087cbd40146101e45780630ad58d2f146101f9575b600080fd5b6101d161043d565b6040519081526020015b60405180910390f35b6101f76101f23660046135ca565b6104d6565b005b6101f76102073660046135e7565b6105a3565b6101f761021a3660046135ca565b610882565b61023261022d366004613620565b610e73565b6040516101db9190613639565b6002546101d1565b6001546101d1565b6101f761025d366004613688565b610f54565b6101f76102703660046136b8565b611204565b6101f76102833660046135ca565b611411565b6101f7610296366004613688565b6114d9565b6101f76102a9366004613620565b61178c565b6102326102bc366004613620565b611bcd565b6101f7611faf565b60045473ffffffffffffffffffffffffffffffffffffffff165b60405173ffffffffffffffffffffffffffffffffffffffff90911681526020016101db565b6101f7612066565b60035473ffffffffffffffffffffffffffffffffffffffff166102e3565b60005473ffffffffffffffffffffffffffffffffffffffff166102e3565b6101f761035a3660046135e7565b612070565b61037261036d366004613688565b612286565b6040516101db91906136da565b7f00000000000000000000000000000000000000000000000000000000000000006101d1565b6101f76103b3366004613620565b61233b565b6101f76103c63660046136f1565b6124f4565b6101f76103d9366004613620565b612799565b6101f76103ec3660046135e7565b612827565b7f00000000000000000000000000000000000000000000000000000000000000006102e3565b6101d1610425366004613688565b612c1e565b6101f76104383660046135ca565b612e5d565b600554604080517fb3944d52000000000000000000000000000000000000000000000000000000008152905160009273ffffffffffffffffffffffffffffffffffffffff169163b3944d529160048083019260209291908290030181865afa1580156104ad573d6000803e3d6000fd5b505050506040513d601f19601f820116820180604052508101906104d19190613729565b905090565b60005473ffffffffffffffffffffffffffffffffffffffff16331461055c576040517f08c379a000000000000000000000000000000000000000000000000000000000815260206004820181905260248201527f4f776e61626c653a2063616c6c6572206973206e6f7420746865206f776e657260448201526064015b60405180910390fd5b600580547fffffffffffffffffffffffff00000000000000000000000000000000000000001673ffffffffffffffffffffffffffffffffffffffff92909216919091179055565b60006105ae84611bcd565b90504381608001511061061d576040517f08c379a000000000000000000000000000000000000000000000000000000000815260206004820152601060248201527f4d46473a20706f6f6c206c6f636b6564000000000000000000000000000000006044820152606401610553565b600554604080517f1069f3b500000000000000000000000000000000000000000000000000000000815260048101879052336024820152815160009373ffffffffffffffffffffffffffffffffffffffff1692631069f3b592604480820193918290030181865afa158015610696573d6000803e3d6000fd5b505050506040513d601f19601f820116820180604052508101906106ba9190613742565b805190915084811015610729576040517f08c379a000000000000000000000000000000000000000000000000000000000815260206004820181905260248201527f4d46473a20616d6f756e74206578656564732073746f72656420616d6f756e746044820152606401610553565b606083015161074661073b82886137e7565b64e8d4a51000612e69565b83602001516107559190613824565b60208401528582038084526005546040517f3224e6c900000000000000000000000000000000000000000000000000000000815291935073ffffffffffffffffffffffffffffffffffffffff1690633224e6c9906107bb908a903390889060040161384b565b600060405180830381600087803b1580156107d557600080fd5b505af11580156107e9573d6000803e3d6000fd5b50508551610811925073ffffffffffffffffffffffffffffffffffffffff1690508688612e82565b73ffffffffffffffffffffffffffffffffffffffff8516873373ffffffffffffffffffffffffffffffffffffffff167f8166bf25f8a2b7ed3c85049207da4358d16edbed977d23fa2ee6f0dde3ec21328960405161087191815260200190565b60405180910390a450505050505050565b60005473ffffffffffffffffffffffffffffffffffffffff163314610903576040517f08c379a000000000000000000000000000000000000000000000000000000000815260206004820181905260248201527f4f776e61626c653a2063616c6c6572206973206e6f7420746865206f776e65726044820152606401610553565b60045473ffffffffffffffffffffffffffffffffffffffff1615610983576040517f08c379a000000000000000000000000000000000000000000000000000000000815260206004820152601a60248201527f4d46473a20537563636573736f7220616c7265616479207365740000000000006044820152606401610553565b3073ffffffffffffffffffffffffffffffffffffffff168173ffffffffffffffffffffffffffffffffffffffff16638da5cb5b6040518163ffffffff1660e01b8152600401602060405180830381865afa1580156109e5573d6000803e3d6000fd5b505050506040513d601f19601f82011682018060405250810190610a099190613885565b73ffffffffffffffffffffffffffffffffffffffff1614610a86576040517f08c379a000000000000000000000000000000000000000000000000000000000815260206004820181905260248201527f4d46473a20537563636573736f72206e6f74206f776e656420627920746869736044820152606401610553565b600480547fffffffffffffffffffffffff00000000000000000000000000000000000000001673ffffffffffffffffffffffffffffffffffffffff83811691821783556040517ff2fde38b000000000000000000000000000000000000000000000000000000008152928301919091527f0000000000000000000000000000000000000000000000000000000000000000169063f2fde38b90602401600060405180830381600087803b158015610b3c57600080fd5b505af1158015610b50573d6000803e3d6000fd5b50506040517f70a082310000000000000000000000000000000000000000000000000000000081523060048201527f000000000000000000000000000000000000000000000000000000000000000073ffffffffffffffffffffffffffffffffffffffff16925063a9059cbb9150839083906370a0823190602401602060405180830381865afa158015610be8573d6000803e3d6000fd5b505050506040513d601f19601f82011682018060405250810190610c0c9190613729565b6040517fffffffff0000000000000000000000000000000000000000000000000000000060e085901b16815273ffffffffffffffffffffffffffffffffffffffff909216600483015260248201526044016020604051808303816000875af1158015610c7c573d6000803e3d6000fd5b505050506040513d601f19601f82011682018060405250810190610ca091906138a2565b50610ca9611faf565b6005546040517ff2fde38b00000000000000000000000000000000000000000000000000000000815273ffffffffffffffffffffffffffffffffffffffff83811660048301529091169063f2fde38b90602401600060405180830381600087803b158015610d1657600080fd5b505af1158015610d2a573d6000803e3d6000fd5b5050600480546005546040517f087cbd4000000000000000000000000000000000000000000000000000000000815273ffffffffffffffffffffffffffffffffffffffff9182169381019390935216925063087cbd409150602401600060405180830381600087803b158015610d9f57600080fd5b505af1158015610db3573d6000803e3d6000fd5b505050508073ffffffffffffffffffffffffffffffffffffffff1663f2fde38b610df260005473ffffffffffffffffffffffffffffffffffffffff1690565b6040517fffffffff0000000000000000000000000000000000000000000000000000000060e084901b16815273ffffffffffffffffffffffffffffffffffffffff9091166004820152602401600060405180830381600087803b158015610e5857600080fd5b505af1158015610e6c573d6000803e3d6000fd5b5050505050565b610ebb6040518060a00160405280600073ffffffffffffffffffffffffffffffffffffffff168152602001600081526020016000815260200160008152602001600081525090565b6005546040517f2f380b350000000000000000000000000000000000000000000000000000000081526004810184905273ffffffffffffffffffffffffffffffffffffffff90911690632f380b359060240160a060405180830381865afa158015610f2a573d6000803e3d6000fd5b505050506040513d601f19601f82011682018060405250810190610f4e91906138c4565b92915050565b6000610f5f83611bcd565b60055490915060009073ffffffffffffffffffffffffffffffffffffffff16631069f3b585336040517fffffffff0000000000000000000000000000000000000000000000000000000060e085901b168152600481019290925273ffffffffffffffffffffffffffffffffffffffff1660248201526044016040805180830381865afa158015610ff3573d6000803e3d6000fd5b505050506040513d601f19601f820116820180604052508101906110179190613742565b905060006110328360600151836000015161073b91906137e7565b905060008260200151826110469190613824565b602084018390526005546040517f3224e6c900000000000000000000000000000000000000000000000000000000815291925073ffffffffffffffffffffffffffffffffffffffff1690633224e6c9906110a89089903390889060040161384b565b600060405180830381600087803b1580156110c257600080fd5b505af11580156110d6573d6000803e3d6000fd5b50506040517fa9059cbb00000000000000000000000000000000000000000000000000000000815273ffffffffffffffffffffffffffffffffffffffff8881166004830152602482018590527f000000000000000000000000000000000000000000000000000000000000000016925063a9059cbb91506044016020604051808303816000875af115801561116f573d6000803e3d6000fd5b505050506040513d601f19601f8201168201806040525081019061119391906138a2565b5073ffffffffffffffffffffffffffffffffffffffff8516863373ffffffffffffffffffffffffffffffffffffffff167f21cbb56dd6543339d498c80d96e1552af32e753decefef74da4c5efef932dbd4846040516111f491815260200190565b60405180910390a4505050505050565b60005473ffffffffffffffffffffffffffffffffffffffff163314611285576040517f08c379a000000000000000000000000000000000000000000000000000000000815260206004820181905260248201527f4f776e61626c653a2063616c6c6572206973206e6f7420746865206f776e65726044820152606401610553565b61128d611faf565b6005546040517f2f380b350000000000000000000000000000000000000000000000000000000081526004810184905260009173ffffffffffffffffffffffffffffffffffffffff1690632f380b359060240160a060405180830381865afa1580156112fd573d6000803e3d6000fd5b505050506040513d601f19601f8201168201806040525081019061132191906138c4565b9050816113346002548360200151900390565b61133e9190613964565b600255602081018290526005546040517f91f317e400000000000000000000000000000000000000000000000000000000815273ffffffffffffffffffffffffffffffffffffffff909116906391f317e4906113a09086908590600401613977565b600060405180830381600087803b1580156113ba57600080fd5b505af11580156113ce573d6000803e3d6000fd5b50505050827f942cc7e17a17c164bd977f32ab8c54265d5b9d481e4e352bf874f1e568874e7c8360405161140491815260200190565b60405180910390a2505050565b60005473ffffffffffffffffffffffffffffffffffffffff163314611492576040517f08c379a000000000000000000000000000000000000000000000000000000000815260206004820181905260248201527f4f776e61626c653a2063616c6c6572206973206e6f7420746865206f776e65726044820152606401610553565b600380547fffffffffffffffffffffffff00000000000000000000000000000000000000001673ffffffffffffffffffffffffffffffffffffffff92909216919091179055565b6005546040517f2f380b350000000000000000000000000000000000000000000000000000000081526004810184905260009173ffffffffffffffffffffffffffffffffffffffff1690632f380b359060240160a060405180830381865afa158015611549573d6000803e3d6000fd5b505050506040513d601f19601f8201168201806040525081019061156d91906138c4565b9050438160800151106115dc576040517f08c379a000000000000000000000000000000000000000000000000000000000815260206004820152601060248201527f4d46473a20706f6f6c206c6f636b6564000000000000000000000000000000006044820152606401610553565b600554604080517f1069f3b500000000000000000000000000000000000000000000000000000000815260048101869052336024820152815160009373ffffffffffffffffffffffffffffffffffffffff1692631069f3b592604480820193918290030181865afa158015611655573d6000803e3d6000fd5b505050506040513d601f19601f820116820180604052508101906116799190613742565b80518351919250906116a29073ffffffffffffffffffffffffffffffffffffffff168583612e82565b73ffffffffffffffffffffffffffffffffffffffff8416853373ffffffffffffffffffffffffffffffffffffffff167f2cac5e20e1541d836381527a43f651851e302817b71dc8e810284e69210c1c6b8460405161170291815260200190565b60405180910390a46000808352602083015260055473ffffffffffffffffffffffffffffffffffffffff16633224e6c98633856040518463ffffffff1660e01b81526004016117539392919061384b565b600060405180830381600087803b15801561176d57600080fd5b505af1158015611781573d6000803e3d6000fd5b505050505050505050565b60005473ffffffffffffffffffffffffffffffffffffffff16331461180d576040517f08c379a000000000000000000000000000000000000000000000000000000000815260206004820181905260248201527f4f776e61626c653a2063616c6c6572206973206e6f7420746865206f776e65726044820152606401610553565b60035473ffffffffffffffffffffffffffffffffffffffff1661188c576040517f08c379a000000000000000000000000000000000000000000000000000000000815260206004820152601460248201527f6d6967726174653a206e6f206d69677261746f720000000000000000000000006044820152606401610553565b6005546040517f2f380b350000000000000000000000000000000000000000000000000000000081526004810183905260009173ffffffffffffffffffffffffffffffffffffffff1690632f380b359060240160a060405180830381865afa1580156118fc573d6000803e3d6000fd5b505050506040513d601f19601f8201168201806040525081019061192091906138c4565b80516040517f70a082310000000000000000000000000000000000000000000000000000000081523060048201529192509060009073ffffffffffffffffffffffffffffffffffffffff8316906370a0823190602401602060405180830381865afa158015611993573d6000803e3d6000fd5b505050506040513d601f19601f820116820180604052508101906119b79190613729565b6003549091506119e19073ffffffffffffffffffffffffffffffffffffffff848116911683612f5b565b6003546040517fce5494bb00000000000000000000000000000000000000000000000000000000815273ffffffffffffffffffffffffffffffffffffffff8481166004830152600092169063ce5494bb906024016020604051808303816000875af1158015611a54573d6000803e3d6000fd5b505050506040513d601f19601f82011682018060405250810190611a789190613885565b6040517f70a0823100000000000000000000000000000000000000000000000000000000815230600482015290915073ffffffffffffffffffffffffffffffffffffffff8216906370a0823190602401602060405180830381865afa158015611ae5573d6000803e3d6000fd5b505050506040513d601f19601f82011682018060405250810190611b099190613729565b8214611b71576040517f08c379a000000000000000000000000000000000000000000000000000000000815260206004820152600c60248201527f6d6967726174653a2062616400000000000000000000000000000000000000006044820152606401610553565b73ffffffffffffffffffffffffffffffffffffffff80821685526005546040517f91f317e40000000000000000000000000000000000000000000000000000000081529116906391f317e4906117539088908890600401613977565b611c156040518060a00160405280600073ffffffffffffffffffffffffffffffffffffffff168152602001600081526020016000815260200160008152602001600081525090565b6005546040517f2f380b350000000000000000000000000000000000000000000000000000000081526004810184905260009173ffffffffffffffffffffffffffffffffffffffff1690632f380b359060240160a060405180830381865afa158015611c85573d6000803e3d6000fd5b505050506040513d601f19601f82011682018060405250810190611ca991906138c4565b905080604001514311611cbc5792915050565b80516040517f70a0823100000000000000000000000000000000000000000000000000000000815230600482015260009173ffffffffffffffffffffffffffffffffffffffff16906370a0823190602401602060405180830381865afa158015611d2a573d6000803e3d6000fd5b505050506040513d601f19601f82011682018060405250810190611d4e9190613729565b905080600003611df3574360408084019190915260055490517f91f317e400000000000000000000000000000000000000000000000000000000815273ffffffffffffffffffffffffffffffffffffffff909116906391f317e490611db99087908690600401613977565b600060405180830381600087803b158015611dd357600080fd5b505af1158015611de7573d6000803e3d6000fd5b50939695505050505050565b6000611e0f611e058460400151430390565b84602001516130b7565b9050611e20836060015182846130d9565b60608401526040517f40c10f19000000000000000000000000000000000000000000000000000000008152306004820152602481018290527f000000000000000000000000000000000000000000000000000000000000000073ffffffffffffffffffffffffffffffffffffffff16906340c10f1990604401600060405180830381600087803b158015611eb357600080fd5b505af1158015611ec7573d6000803e3d6000fd5b50504360408087019190915260055490517f91f317e400000000000000000000000000000000000000000000000000000000815273ffffffffffffffffffffffffffffffffffffffff90911692506391f317e49150611f2c9088908790600401613977565b600060405180830381600087803b158015611f4657600080fd5b505af1158015611f5a573d6000803e3d6000fd5b5050505060408381015160608086015183519283526020830186905282840152915187927fcb7325664a4a3b7c7223eefc492a97ca4fdf94d46884621e5a8fae5a04b2b9d2928290030190a250909392505050565b600554604080517fb3944d52000000000000000000000000000000000000000000000000000000008152905160009273ffffffffffffffffffffffffffffffffffffffff169163b3944d529160048083019260209291908290030181865afa15801561201f573d6000803e3d6000fd5b505050506040513d601f19601f820116820180604052508101906120439190613729565b905060005b818110156120625761205981611bcd565b50600101612048565b5050565b61206e613105565b565b600061207b84611bcd565b6005546040517f1069f3b50000000000000000000000000000000000000000000000000000000081526004810187905273ffffffffffffffffffffffffffffffffffffffff858116602483015292935060009290911690631069f3b5906044016040805180830381865afa1580156120f7573d6000803e3d6000fd5b505050506040513d601f19601f8201168201806040525081019061211b9190613742565b805190915061212b908590613964565b8152606082015164e8d4a510009061214390866137e7565b61214d91906139fb565b8160200181815161215e9190613a36565b9052506005546040517f3224e6c900000000000000000000000000000000000000000000000000000000815273ffffffffffffffffffffffffffffffffffffffff90911690633224e6c9906121bb9088908790869060040161384b565b600060405180830381600087803b1580156121d557600080fd5b505af11580156121e9573d6000803e3d6000fd5b505050506122176121f73390565b835173ffffffffffffffffffffffffffffffffffffffff16903087613190565b73ffffffffffffffffffffffffffffffffffffffff8316853373ffffffffffffffffffffffffffffffffffffffff167f02d7e648dd130fc184d383e55bb126ac4c9c60e8f94bf05acdf557ba2d540b478760405161227791815260200190565b60405180910390a45050505050565b60408051808201909152600080825260208201526005546040517f1069f3b50000000000000000000000000000000000000000000000000000000081526004810185905273ffffffffffffffffffffffffffffffffffffffff848116602483015290911690631069f3b5906044016040805180830381865afa158015612310573d6000803e3d6000fd5b505050506040513d601f19601f820116820180604052508101906123349190613742565b9392505050565b60005473ffffffffffffffffffffffffffffffffffffffff1633146123bc576040517f08c379a000000000000000000000000000000000000000000000000000000000815260206004820181905260248201527f4f776e61626c653a2063616c6c6572206973206e6f7420746865206f776e65726044820152606401610553565b6005546040517f2f380b350000000000000000000000000000000000000000000000000000000081526004810183905260009173ffffffffffffffffffffffffffffffffffffffff1690632f380b359060240160a060405180830381865afa15801561242c573d6000803e3d6000fd5b505050506040513d601f19601f8201168201806040525081019061245091906138c4565b600254602082015191925003600255600060208201526005546040517f91f317e400000000000000000000000000000000000000000000000000000000815273ffffffffffffffffffffffffffffffffffffffff909116906391f317e4906124be9085908590600401613977565b600060405180830381600087803b1580156124d857600080fd5b505af11580156124ec573d6000803e3d6000fd5b505050505050565b60005473ffffffffffffffffffffffffffffffffffffffff163314612575576040517f08c379a000000000000000000000000000000000000000000000000000000000815260206004820181905260248201527f4f776e61626c653a2063616c6c6572206973206e6f7420746865206f776e65726044820152606401610553565b61257d611faf565b60007f000000000000000000000000000000000000000000000000000000000000000043116125cc577f00000000000000000000000000000000000000000000000000000000000000006125ce565b435b9050836002546125de9190613964565b6002556005546040805160a08101825273ffffffffffffffffffffffffffffffffffffffff868116825260208201889052918101849052600060608201529116906393bb3d4f90608081018561263557600061263f565b61263f8686613964565b8152506040518263ffffffff1660e01b815260040161265e9190613639565b600060405180830381600087803b15801561267857600080fd5b505af115801561268c573d6000803e3d6000fd5b505050508273ffffffffffffffffffffffffffffffffffffffff16612760600560009054906101000a900473ffffffffffffffffffffffffffffffffffffffff1673ffffffffffffffffffffffffffffffffffffffff1663b3944d526040518163ffffffff1660e01b8152600401602060405180830381865afa158015612717573d6000803e3d6000fd5b505050506040513d601f19601f8201168201806040525081019061273b9190613729565b7fffffffffffffffffffffffffffffffffffffffffffffffffffffffffffffffff0190565b6040518681527f4710feb78e3bce8d2e3ca2989a8eb2f8bcd32a6a55b4535942c180fc4d2e29529060200160405180910390a350505050565b60005473ffffffffffffffffffffffffffffffffffffffff16331461281a576040517f08c379a000000000000000000000000000000000000000000000000000000000815260206004820181905260248201527f4f776e61626c653a2063616c6c6572206973206e6f7420746865206f776e65726044820152606401610553565b612822611faf565b600155565b600061283284611bcd565b9050438160800151106128a1576040517f08c379a000000000000000000000000000000000000000000000000000000000815260206004820152601060248201527f4d46473a20706f6f6c206c6f636b6564000000000000000000000000000000006044820152606401610553565b600554604080517f1069f3b500000000000000000000000000000000000000000000000000000000815260048101879052336024820152815160009373ffffffffffffffffffffffffffffffffffffffff1692631069f3b592604480820193918290030181865afa15801561291a573d6000803e3d6000fd5b505050506040513d601f19601f8201168201806040525081019061293e9190613742565b8051909150848110156129ad576040517f08c379a000000000000000000000000000000000000000000000000000000000815260206004820181905260248201527f4d46473a20616d6f756e74206578656564732073746f72656420616d6f756e746044820152606401610553565b606083015160208301518351600091906129cc9061073b9085906137e7565b6129d69190613824565b6040517fa9059cbb00000000000000000000000000000000000000000000000000000000815273ffffffffffffffffffffffffffffffffffffffff8881166004830152602482018390529192507f00000000000000000000000000000000000000000000000000000000000000009091169063a9059cbb906044016020604051808303816000875af1158015612a70573d6000803e3d6000fd5b505050506040513d601f19601f82011682018060405250810190612a9491906138a2565b508683038085529250612aaa61073b83856137e7565b602085015260055473ffffffffffffffffffffffffffffffffffffffff16633224e6c98933876040518463ffffffff1660e01b8152600401612aee9392919061384b565b600060405180830381600087803b158015612b0857600080fd5b505af1158015612b1c573d6000803e3d6000fd5b50508651612b44925073ffffffffffffffffffffffffffffffffffffffff1690508789612e82565b73ffffffffffffffffffffffffffffffffffffffff8616883373ffffffffffffffffffffffffffffffffffffffff167f8166bf25f8a2b7ed3c85049207da4358d16edbed977d23fa2ee6f0dde3ec21328a604051612ba491815260200190565b60405180910390a473ffffffffffffffffffffffffffffffffffffffff8616883373ffffffffffffffffffffffffffffffffffffffff167f21cbb56dd6543339d498c80d96e1552af32e753decefef74da4c5efef932dbd484604051612c0c91815260200190565b60405180910390a45050505050505050565b6005546040517f2f380b3500000000000000000000000000000000000000000000000000000000815260048101849052600091829173ffffffffffffffffffffffffffffffffffffffff90911690632f380b359060240160a060405180830381865afa158015612c92573d6000803e3d6000fd5b505050506040513d601f19601f82011682018060405250810190612cb691906138c4565b6005546040517f1069f3b50000000000000000000000000000000000000000000000000000000081526004810187905273ffffffffffffffffffffffffffffffffffffffff868116602483015292935060009290911690631069f3b5906044016040805180830381865afa158015612d32573d6000803e3d6000fd5b505050506040513d601f19601f82011682018060405250810190612d569190613742565b606083015183516040517f70a08231000000000000000000000000000000000000000000000000000000008152306004820152929350909160009173ffffffffffffffffffffffffffffffffffffffff16906370a0823190602401602060405180830381865afa158015612dce573d6000803e3d6000fd5b505050506040513d601f19601f82011682018060405250810190612df29190613729565b9050836040015143118015612e0657508015155b15612e3257612e2f82612e29612e1f8760400151430390565b87602001516130b7565b836130d9565b91505b60208301518351612e489061073b9085906137e7565b612e529190613824565b979650505050505050565b612e66816131f4565b50565b6000818381612e7a57612e7a6139cc565b049392505050565b60405173ffffffffffffffffffffffffffffffffffffffff8316602482015260448101829052612f569084907fa9059cbb00000000000000000000000000000000000000000000000000000000906064015b604080517fffffffffffffffffffffffffffffffffffffffffffffffffffffffffffffffe08184030181529190526020810180517bffffffffffffffffffffffffffffffffffffffffffffffffffffffff167fffffffff00000000000000000000000000000000000000000000000000000000909316929092179091526132fb565b505050565b801580612ffb57506040517fdd62ed3e00000000000000000000000000000000000000000000000000000000815230600482015273ffffffffffffffffffffffffffffffffffffffff838116602483015284169063dd62ed3e90604401602060405180830381865afa158015612fd5573d6000803e3d6000fd5b505050506040513d601f19601f82011682018060405250810190612ff99190613729565b155b613061576040517f08c379a000000000000000000000000000000000000000000000000000000000815260206004820152601e60248201527f5361666545524332303a206578706c6f697461626c6520617070726f766500006044820152606401610553565b60405173ffffffffffffffffffffffffffffffffffffffff8316602482015260448101829052612f569084907f095ea7b30000000000000000000000000000000000000000000000000000000090606401612ed4565b60006123346130c7600154840290565b6130d190856137e7565b600254612e69565b60006130f36130ed64e8d4a51000856137e7565b83612e69565b6130fd9085613964565b949350505050565b60005473ffffffffffffffffffffffffffffffffffffffff163314613186576040517f08c379a000000000000000000000000000000000000000000000000000000000815260206004820181905260248201527f4f776e61626c653a2063616c6c6572206973206e6f7420746865206f776e65726044820152606401610553565b61206e60006133e1565b60405173ffffffffffffffffffffffffffffffffffffffff808516602483015283166044820152606481018290526131ee9085907f23b872dd0000000000000000000000000000000000000000000000000000000090608401612ed4565b50505050565b60005473ffffffffffffffffffffffffffffffffffffffff163314613275576040517f08c379a000000000000000000000000000000000000000000000000000000000815260206004820181905260248201527f4f776e61626c653a2063616c6c6572206973206e6f7420746865206f776e65726044820152606401610553565b73ffffffffffffffffffffffffffffffffffffffff81166132f2576040517f08c379a000000000000000000000000000000000000000000000000000000000815260206004820181905260248201527f4f776e61626c653a206e6577206f776e657220697320616464726573732830296044820152606401610553565b612e66816133e1565b600061335d826040518060400160405280602081526020017f5361666545524332303a206c6f772d6c6576656c2063616c6c206661696c65648152508573ffffffffffffffffffffffffffffffffffffffff166134569092919063ffffffff16565b805190915015612f56578080602001905181019061337b91906138a2565b612f56576040517f08c379a000000000000000000000000000000000000000000000000000000000815260206004820152601c60248201527f5361666545524332303a2045524332302063616c6c206661696c6564000000006044820152606401610553565b6000805473ffffffffffffffffffffffffffffffffffffffff8381167fffffffffffffffffffffffff0000000000000000000000000000000000000000831681178455604051919092169283917f8be0079c531659141344cd1fd0a4f28419497f9722a3daafe3b4186f6b6457e09190a35050565b60606130fd84846000858573ffffffffffffffffffffffffffffffffffffffff85163b6134df576040517f08c379a000000000000000000000000000000000000000000000000000000000815260206004820152601d60248201527f416464726573733a2063616c6c20746f206e6f6e2d636f6e74726163740000006044820152606401610553565b6000808673ffffffffffffffffffffffffffffffffffffffff1685876040516135089190613a82565b60006040518083038185875af1925050503d8060008114613545576040519150601f19603f3d011682016040523d82523d6000602084013e61354a565b606091505b5091509150612e5282828660608315613564575081612334565b8251156135745782518084602001fd5b816040517f08c379a00000000000000000000000000000000000000000000000000000000081526004016105539190613a9e565b73ffffffffffffffffffffffffffffffffffffffff81168114612e6657600080fd5b6000602082840312156135dc57600080fd5b8135612334816135a8565b6000806000606084860312156135fc57600080fd5b83359250602084013591506040840135613615816135a8565b809150509250925092565b60006020828403121561363257600080fd5b5035919050565b60a08101610f4e828473ffffffffffffffffffffffffffffffffffffffff8151168252602081015160208301526040810151604083015260608101516060830152608081015160808301525050565b6000806040838503121561369b57600080fd5b8235915060208301356136ad816135a8565b809150509250929050565b600080604083850312156136cb57600080fd5b50508035926020909101359150565b815181526020808301519082015260408101610f4e565b60008060006060848603121561370657600080fd5b833592506020840135613718816135a8565b929592945050506040919091013590565b60006020828403121561373b57600080fd5b5051919050565b60006040828403121561375457600080fd5b6040516040810181811067ffffffffffffffff8211171561379e577f4e487b7100000000000000000000000000000000000000000000000000000000600052604160045260246000fd5b604052825181526020928301519281019290925250919050565b7f4e487b7100000000000000000000000000000000000000000000000000000000600052601160045260246000fd5b6000817fffffffffffffffffffffffffffffffffffffffffffffffffffffffffffffffff048311821515161561381f5761381f6137b8565b500290565b8181036000831280158383131683831282161715613844576138446137b8565b5092915050565b83815273ffffffffffffffffffffffffffffffffffffffff83166020820152608081016130fd604083018480518252602090810151910152565b60006020828403121561389757600080fd5b8151612334816135a8565b6000602082840312156138b457600080fd5b8151801515811461233457600080fd5b600060a082840312156138d657600080fd5b60405160a0810181811067ffffffffffffffff82111715613920577f4e487b7100000000000000000000000000000000000000000000000000000000600052604160045260246000fd5b604052825161392e816135a8565b80825250602083015160208201526040830151604082015260608301516060820152608083015160808201528091505092915050565b80820180821115610f4e57610f4e6137b8565b82815260c08101612334602083018473ffffffffffffffffffffffffffffffffffffffff8151168252602081015160208301526040810151604083015260608101516060830152608081015160808301525050565b7f4e487b7100000000000000000000000000000000000000000000000000000000600052601260045260246000fd5b600082613a31577f4e487b7100000000000000000000000000000000000000000000000000000000600052601260045260246000fd5b500490565b8082018281126000831280158216821582161715613a5657613a566137b8565b505092915050565b60005b83811015613a79578181015183820152602001613a61565b50506000910152565b60008251613a94818460208701613a5e565b9190910192915050565b6020815260008251806020840152613abd816040850160208701613a5e565b601f017fffffffffffffffffffffffffffffffffffffffffffffffffffffffffffffffe016919091016040019291505056fea26469706673582212208439fa538215696f0e2b3558a17047ffd7203141dfda5564285dccb68af52faf64736f6c63430008100033",
  "devdoc": {
    "kind": "dev",
    "methods": {
      "add(uint256,address,uint256)": {
        "params": {
          "allocPoint": "AP of the new pool.",
          "lockPeriod": "Number of Blocks the pool should disallow withdraws of all kind.",
          "lpToken": "Address of the LP ERC-20 token."
        }
      }
    },
    "version": 1
  },
  "userdoc": {
    "events": {
      "OwnershipTransferred(address,address)": {
        "notice": "Emitted when ownership is moved from one address to another."
      }
    },
    "kind": "user",
    "methods": {
      "add(uint256,address,uint256)": {
        "notice": "Add a new LP to the pool. Can only be called by the owner. WARNING DO NOT add the same LP token more than once. Rewards will be messed up if you do."
      },
      "migrator()": {
        "notice": "Returns the current migrator."
      },
      "owner()": {
        "notice": "Returns the address of the current owner."
      },
      "renounceOwnership()": {
        "notice": "Leaves the contract without owner. Can only be called by the current owner."
      },
      "successor()": {
        "notice": "Returns the address of the sucessor."
      },
      "transferOwnership(address)": {
        "notice": "Transfers ownership of the contract to a new account (`newOwner`). Can only be called by the current owner."
      }
    },
    "version": 1
  },
  "storageLayout": {
    "storage": [
      {
        "astId": 10,
        "contract": "contracts/MagneticFieldGenerator.sol:MagneticFieldGenerator",
        "label": "_owner",
        "offset": 0,
        "slot": "0",
        "type": "t_address"
      },
      {
        "astId": 7105,
        "contract": "contracts/MagneticFieldGenerator.sol:MagneticFieldGenerator",
        "label": "_fermionPerBlock",
        "offset": 0,
        "slot": "1",
        "type": "t_uint256"
      },
      {
        "astId": 7107,
        "contract": "contracts/MagneticFieldGenerator.sol:MagneticFieldGenerator",
        "label": "_totalAllocPoint",
        "offset": 0,
        "slot": "2",
        "type": "t_uint256"
      },
      {
        "astId": 7113,
        "contract": "contracts/MagneticFieldGenerator.sol:MagneticFieldGenerator",
        "label": "_migrator",
        "offset": 0,
        "slot": "3",
        "type": "t_contract(IMigratorDevice)9646"
      },
      {
        "astId": 7116,
        "contract": "contracts/MagneticFieldGenerator.sol:MagneticFieldGenerator",
        "label": "_successor",
        "offset": 0,
        "slot": "4",
        "type": "t_contract(IMagneticFieldGenerator)9569"
      },
      {
        "astId": 7119,
        "contract": "contracts/MagneticFieldGenerator.sol:MagneticFieldGenerator",
        "label": "_store",
        "offset": 0,
        "slot": "5",
        "type": "t_contract(IMagneticFieldGeneratorStore)9629"
      }
    ],
    "types": {
      "t_address": {
        "encoding": "inplace",
        "label": "address",
        "numberOfBytes": "20"
      },
      "t_contract(IMagneticFieldGenerator)9569": {
        "encoding": "inplace",
        "label": "contract IMagneticFieldGenerator",
        "numberOfBytes": "20"
      },
      "t_contract(IMagneticFieldGeneratorStore)9629": {
        "encoding": "inplace",
        "label": "contract IMagneticFieldGeneratorStore",
        "numberOfBytes": "20"
      },
      "t_contract(IMigratorDevice)9646": {
        "encoding": "inplace",
        "label": "contract IMigratorDevice",
        "numberOfBytes": "20"
      },
      "t_uint256": {
        "encoding": "inplace",
        "label": "uint256",
        "numberOfBytes": "32"
      }
    }
  }
}